:1032E70053B1BF53B2BF53B17F53B27F75985043A9
:1032F7008920438780438E1053C4DFAB07AA06A9F2
:1033070005A8047F407E427D0F7C00121DBEEF049E
:09331700F404F58DD28ED2992246
:102E92008F168E158D148C1353B1BF53B2BF53B11D
:102EA2007F53B27F75985043878053C4F843C42040
:102EB200AB16AA15A914A8137F407E427D0F7C0091
:102EC200121DBEC374FF9FFF74FF9EFEE49DFDE4CE
:102ED2009CFC7808121E6F8FC6AB16AA15A914A8FF
:102EE200137F407E427D0F7C00121DBEC374FF9F84
:092EF200FF8FC543C408D29922E8
:0735B6003098FDAF99C298A7
:0135BD0022EB
:0835BE00C2998F993099FD229A
:102FCD008F1A8E198D188C1753B1FB53B2FB53B357
:102FDD00BF43B44075F85075C40853C4DFAB1AAA8B
:102FED0019A918A8177F407E427D0F7C00121DBEC7
:102FFD00C374FF9FFF74FF9EFEE49DFDE49CFC786F
:10300D0008121E6F8FC6AB1AAA19A918A8177F40F0
:10301D007E427D0F7C00121DBEC374FF9FFF8FC5C6
:04302D0043C408226E
:0735C60030F8FDAF9AC2F8D6
:0135CD0022DB
:0835CE00C2F98F9A30F9FD22C9
:103183008F1E8E1D8D1C8C1B538EF7438901D28C91
:10319300E4FFFEFDFCAB1EAA1DA91CA81BC3121E47
:1031A3005E6025758A7E758CFF308DFDC28DE51EB0
:1031B30024FFF51EE51D34FFF51DE51C34FFF51C4A
:0B31C300E51B34FFF51B80C8C28C2206
:1031CE008F338E328D318C30538EF7438901D28CF2
:1031DE00E4FFFEFDFCAB33AA32A931A830C3121EA8
:1031EE005E6025758ACA758CFA308DFDC28DE53309
:1031FE0024FFF533E53234FFF532E53134FFF53196
:0B320E00E53034FFF53080C8C28C2290
:103219008F2F8E2E8D2D8C2C538EEF438910D28EAD
:10322900E4FFFEFDFCAB2FAA2EA92DA82CC3121E6C
:103239005E6025758BEA758DCB308FFDC28FE52FCA
:1032490024FFF52FE52E34FFF52EE52D34FFF52D5E
:0B325900E52C34FFF52C80C8C28E224B
:103135008F668E658D648C6353C9BF53C9DF43C9E0
:1031450010D2CAE4FFFEFDFCAB66AA65A964A863BC
:10315500C3121E5E602575CC3075CDF830CFFDC22B
:10316500CFE56624FFF566E56534FFF565E564346E
:0E317500FFF564E56334FFF56380C8C2CA222B
:103095008F338E328D318C3075C40743C408E4FFFD
:1030A500FEFDFCAB33AA32A931A830C3121E5E6007
:1030B5002B75C52C75C6CFE5C45410641070F85334
:1030C500C4EFE53324FFF533E53234FFF532E5315E
:1030D50034FFF531E53034FFF53080C253C4F722B3
:1030E5008F6A8E698D688C6775C40743C408E4FFD1
:1030F500FEFDFCAB6AAA69A968A867C3121E5E60DB
:103105002B75C5D875C6FFE5C45410641070F85307
:10311500C4EFE56A24FFF56AE56934FFF569E568FA
:1031250034FFF568E56734FFF56780C253C4F722BD
:101E8200445554593A0025000000000000FEFF03AB
:101E9200033F3E0000FEFF0707FFFE0000FFFF7C3E
:101EA200F080FFFF00030303FFFF030303000000B2
:101EB20000000000003F7F60607E3E00003F7F70B8
:101EC200707F3F00007F7F00010F7F7F00000000D6
:101ED2007F7F000000000000000000000000000002
:101EE20000000000000000000000000000000000F0
:101EF20000000000000000000000000000000000E0
:101F020000FFFF636363637F3E00C0E06060606068
:101F1200E0C0000080C0C0C0FFFF00C0E0606060A1
:101F220060E0C00003FFFF00007F7F0000000000B0
:101F320000003F7F666666666727003F7F606060DD
:101F42007F7F003C7E666666667F7F40007F7F0003
:101F5200000000000000000000000000000000007F
:101F6200000000000000000000000000000000006F
:101F7200000000000000000000FFFF636363637F56
:101F82003E00C0E060606060E0C0000080C0C0C091
:101F9200FFFF00C0E060606060E0C00003FFFF0080
:101FA200007F7F000000000000003F7F66666666DB
:101FB2006727003F7F6060607F7F003C7E666666C9
:101FC200667F7F40007F7F0000000000000000006D
:101FD20000000000000000000000000000000000FF
:101FE20000000000000000000000000000000000EF
:101FF200000000FFFF7CF0C0FFFF00FFFF000303B3
:1020020003FFFF03030300FFFF8383C7FF7E00FE7E
:10201200FF0707FFFE0000000000007F7F000107AE
:102022007F7F007F7F000000007F7F000000007F35
:102032007F0103077E7C003F7F70707F3F000000BE
:10204200000000000000000000000000000000008E
:10205200000000000000000000000000000000007E
:10206200000000000000000000000000F8F870E02E
:10207200C08000F8F80000E0F0180808080818F01E
:10208200E000000000000000000000001F1F000030
:102092000103071F1F0000070F1810101010180F60
:1020A20007000000000000000000000078F8C08077
:1020B20080C0F87800F8F888888888880070F8C8A6
:1020C200C888081810000000000000000000011F6E
:1020D2001F010000001F1F10101010100008181917
:1020E2001113131F0E00000000FE02027AFAC282D0
:1020F20082C2FA7A02FAFA8A8A8A8A8A0272FACA46
:10210200CA8A0A1A120202FE007F40404040415F22
:102112005F414040405F5F505050505040485859D6
:102122005153535F4E40407F00FE0202FAFA72E2C0
:10213200C28202FAFA0202E2F21A0A0A0A0A1AF23D
:10214200E20202FE00000000007F40405F5F40406C
:102152004143475F5F4040474F5850505050584F9F
:102162004740407F00000000000000000000000027
:10217200000000000000000000000000000000005D
:10218200000000000000000000000000000000004D
:10219200000000000000000000000000000000003D
:1021A200000000000000000000000000000000002D
:1021B200000000000000000000000000000000001D
:1021C200000000000000000000000000000000000D
:1021D20000000000000000000000000000000000FD
:1032A800045F40A00000024E003204460000000007
:1032B800015C00015400015E0002570000015A0041
:1032C800015900015600015500014500015B00014C
:0E32D8005D00044A00000000045000000000E9
:1021E200122D80E4F549F548F547F546FFFE123514
:1021F200A1E4F562F5617560A0755F40D2EED28E02
:10220200D3E558945EE55794014003E4F5453083E5
:10221200030222E87F057E007D007C001231CE3071
:1022220083030222E8E55A6402701BE55D7017E53C
:102232005B700B123388755A03E4F55D80471233E5
:1022420088755D01803FAF5AEF600A64016006E560
:102252005D64017030E4FFFE7D207C41AB62AA61C7
:10226200A960A85F121AB0121C6D8F498E488D4763
:102272008C46E55A6401700BE55E7007E556700303
:102282001235A1D2DF20835E05597FE87E037D00EF
:102292007C001231CED3E55994037480948040E5DA
:1022A200E55570E1755501F559E556702212357400
:1022B200755601E4F559F549F548F547F546FFFE2F
:1022C2001235A1D29143B30253B4FDC2A880B61213
:1022D2003535E4F556F559123503D29153B3FD4322
:1022E200B402D2A8809FE4F555F5592095587F0590
:1022F200FEFDFC1231CE20954DE55A64017010129C
:102302003388E4FFFE1235A1D291755A028034E57A
:102312005A7011123388755A01AE48AF491235A16D
:10232200C291801FE55A6402700D123388755A03F8
:10233200E4F55BF55D800CE55A64037006123388A0
:10234200E4F55A3095FDE55A702F753D04753EFF50
:10235200753F1F75407A7B807D017F58122F642064
:10236200920CAE48AF491235A1C2910224D4E4FFC7
:10237200FE1235A1D2910224D4E55A64017050753F
:102382003D04753EFF753F1E75408A7B807D017F4F
:1023920058122F643092030224D47F057E007D0000
:1023A2007C001231CE3092030224D4E55E700C75AB
:1023B2005E01FFFE1235A1D291800CE4F55EAE48BB
:1023C200AF491235A1C2913092030224D480F8E5BC
:1023D2005A640260030224B9753D04753EFF753FDD
:1023E2001F7540F27B807D017F58122F64E55D648A
:1023F2000170762092697F05FEFDFC1231CE30928B
:10240200030224D4C291E4FFFEFD7C40AB62AA61C8
:10241200A960A85F1219BFE4FBFA79207841121A69
:10242200B0121C6D8F498E488D478C461235A17FA4
:10243200057E007D007C00123095E4FFFE7D207C4D
:1024420041AB62AA61A960A85F121AB0121C6D8F1B
:10245200498E488D478C461235A120927580FBD259
:1024620091E4FFFE1235A18069E55B7023753D069C
:10247200753EFF753F2175402A7B787D047F581297
:102482002F64753D08753EFF753F207540AA802177
:10249200753D06753EFF753F2075406A7B787D0469
:1024A2007F58122F64753D08753EFF753F207540B9
:1024B200EA7B787D068016E55A64037015753D0443
:1024C200753EFF753F2175406A7B807D017F581202
:1024D2002F64AF62AE61AD60AC5F1229227BFF7ADE
:1024E2001E79827535107D067F081232647BFF7A71
:1024F2001E79887535107D067F4612326475340266
:10250200753510AB4FAA4E7D067F32122E1802216E
:01251200FECA
:03005B000230313F
:10303100C0E0C0F0C083C082C0D075D000C000C065
:1030410001C002C003C004C005C006C0071234732A
:103051008E578F58D3E558943CE557940F40187517
:103061004900754800754700754600E4FFFE1235BA
:10307100A1122EFB123503C2EFD007D006D005D026
:1030810004D003D002D001D000D0D0D082D083D0E0
:04309100F0D0E03269
:03000300022513C0
:10251300C0E0C0F0C083C082C0D075D000C000C08E
:1025230001C002C003C004C005C006C007AF5AEF14
:10253300600D64016009E55D640160030225DF301D
:10254300974FD2907F037E007D007C00123219C228
:1025530090AF62AE61AD60AC5F7BCD7ACC79CC7865
:102563003D1219BF8F628E618D608C5F7F337E3326
:102573007D8F7C41AB62AA61A960A85F121BB66024
:102583005B4059756200756100756090755F4180AD
:102593004BD2907F017E007D007C00123219C290E5
:1025A300AF62AE61AD60AC5F7BCD7ACC79CC783D68
:1025B3001219BB8F628E618D608C5F7FCD7ECC7D67
:1025C3000C7C40AB62AA61A960A85F121BB6500CD9
:1025D300756266756166756006755F40E55A6402EB
:1025E300702AE55D7026309711D2907F03FEFDFCC3
:1025F300123219C290755B018012D2907F037E0064
:102603007D007C00123219C290755B00E55A6403A9
:10261300704C309725D2907F03FEFDFC123219C215
:1026230090054FE54F7002054ED3945FE54E94003D
:10263300402C754E00754F5F8024D2907F037E003F
:102643007D007C00123219C290E54F154F700215C0
:102653004EC3E54E94005006754E00754F00C28D73
:10266300D007D006D005D004D003D002D001D000CB
:0B267300D0D0D082D083D0F0D0E03275
:03001B0002267E3C
:10267E00C0E0C0F0C083C082C0D075D000C000C022
:10268E0001C002C003C004C005C006C007758BCAD6
:10269E00758DFAE54D2401F54DE4354CF54CE435D8
:1026AE004BF54BE4354AF54AE47F607EEAFDFCAB20
:1026BE004DAA4CA94BA84AC3121E5E7021E55324A5
:1026CE0001F553E43552F552E43551F551E43550E8
:1026DE00F550754D00754C00754B00754A00E47F42
:1026EE0005FEFDFCAB53AA52A951A850C3121E5EA3
:1026FE007047C3E558945EE557940150020545E5D1
:10270E004564037028123574755601755900754964
:10271E0000754800754700754600E4FFFE1235A1AE
:10272E00D29143B30253B4FDC2A875450075530050
:10273E00755200755100755000C28FD007D006D06B
:10274E0005D004D003D002D001D000D0D0D082D09A
:06275E0083D0F0D0E03250
:10005E00434F4E54494E554F5553004F4E004F4649
:10006E00460000000000000000000000000000003C
:10007E000000000000000000000000000000000072
:10008E00000000000080C0E0783C1E04040404045C
:10009E000404040404040404040404040404040412
:1000AE000404040404040404040404040404040402
:1000BE0004040404040C1E7CF0E080000000000028
:1000CE000000000000000000000000000000000022
:1000DE000000000000000000000000000000000012
:1000EE000000000000000000000000000000000002
:1000FE0000000000000000000000000000000000F2
:10010E00C0E0F03C1E0F03010000000000000000E4
:10011E0000000000000000000000000000000000D1
:10012E0000000000000000000000000000000000C1
:10013E0000000000000000000001070F1E78F0E034
:10014E008000000000000000000000000000000021
:10015E000000000000000000000000000000000091
:10016E000000000000000000000000000000000081
:10017E000000000000000000000080E0F07C1E0F78
:10018E0003010000000000000000000000F8F8F875
:10019E001818F8F8F80018F8F8E00080F8F83800A9
:1001AE00F8F8F8D8D8D8D8D80000F8F8989898F871
:1001BE00F8F800000000000000000000000000033E
:1001CE00070F3C78F0C08000000000000000000027
:1001DE000000000000000000000000000000000011
:1001EE000000000000000000000000000000000001
:1001FE000000000080E0F0781E0F070100000000F4
:10020E0000000000000000000000000000070707CB
:10021E000606070707000001070706070703000089
:10022E000707070606060606000007070100030774
:10023E0007040000000000000000000000000000A5
:10024E00000000000103071E3C78E0C080000000A3
:10025E000000000000000000000000000000000090
:10026E000000000000000000000000000000000080
:10027E000000000003070F3C78F0C0800000000073
:10028E00FEFEFF838383EFEEC600FEFFFF808080BD
:10029E00FFFF0200FEFFFF3333F3FFFE0000FEFF01
:1002AE00FF3333F3FFFE1C00FEFFFF9393939392F5
:1002BE000082FFFF077FFEC0FFFFFE00030303FF68
:1002CE00FF0303030080E0F0781E0F07010000001B
:1002DE000000000000000000000000000000000010
:1002EE000000000000000000000000000000000000
:1002FE000000000000000000000103071E3CF8E0B3
:10030E00C000010101010100000000010101010115
:10031E0001000000000101000000010100000001C9
:10032E0001000000010100000001010101010101B5
:10033E000000010100000101010100000000008128
:10034E00C1F0783E0F070100000000000000000021
:10035E00000000000000000000000000000000008F
:10036E00000000000000000000000000000000007F
:10037E00000000000000000000000000000000016E
:10038E00030F1E3CF0E0C000000000000000000063
:10039E00000000000000000000000000000000004F
:1003AE00000000000000000000000000000000003F
:1003BE0000000000000000000080C0E0783C1F0735
:1003CE00030000000000000000000000000000001C
:1003DE00000000000000000000000000000000000F
:1003EE0000000000000000000000000000000000FF
:1003FE0000000000000000000000000000000000EF
:10040E00000000000001070F1E78706060606060E1
:10041E0060606060606060606060606060606060CE
:10042E0060606060606060606060606060606060BE
:10043E00606060606060783C1E0703010000000091
:10044E00000000000000000000000000000000009E
:10045E00000000000000000000000000000000008E
:10046E000000FFFFFFFFFFFFFFFFFFFFFFFFFFFF8C
:10047E00FFFFFFFFFFFFFFFFFFFFFFFFFFFFFFFF7E
:10048E00FFFFFFFFFFFFFFFFFFFFFFFFFFFFFFFF6E
:10049E00FFFFFF7F7F3FBF9FDFDFCFEFEFEFEF6FFE
:1004AE002F6FEFEFEFEFEFCFDF9FBFBF3F7F7FFFEE
:1004BE00FFFFFFFFFFFFFFFFFFFFFFFFFFFFFFFF3E
:1004CE00FFFFFFFFFFFFFFFFFFFFFFFFFFFFFFFF2E
:1004DE00FFFFFFFFFFFFFFFFFFFFFFFFFFFFFFFF1E
:1004EE00FFFFFFFFFFFFFFFFFFFFFFFFFFFFFFFF0E
:1004FE00FFFFFFFFFFFFFFFFFFFFFFFFFFFFFFFFFE
:10050E00FFFFFFFFFFFFFFFFFFFFFF7F1FCFE7F3A1
:10051E00F9FCC636F7F7A76FEFEFCF8F0733FCFF67
:10052E0000FFFE79073F9FCFEFEF6FA7D7F706E4E7
:10053E00FDF9F3E78F1F7FFFFFFFFFFFFFFFFFFFB9
:10054E00FFFFFFFFFFFFFFFFFFFFFFFFFFFFFFFFAD
:10055E00FFFFFFFFFFFFFFFFFFFFFFFFFFFFFFFF9D
:10056E00FFFFFFFFFFFFFFFFFFFFFFFFFFFFFFFF8D
:10057E00FFFFFFFFFFFFFFFFFFFFFFFFFFFFFFFF7D
:10058E00FFFFFFFFFFFFFFFFFF0700FC3F3F9F9FA7
:10059E008FAFA7B4B1B3A7A7A68D8B8F1608000394
:1005AE000003010008164B4D4D66676763686F6F59
:1005BE006F5F5FBF7F7EFC0107FFFFFFFFFFFFFF47
:1005CE00FFFFFFFFFFFFFFFFFFFFFFFFFFFFFFFF2D
:1005DE00FFFFFFFFFFFFFFFFFFFFFFFFFFFFFFFF1D
:1005EE00FFFFFFFFFFFFFFFFFFFFFFFFFFFFFFFF0D
:1005FE00FFFFFFFFFFFFFFFFFFFFFFFFFFFFFFFFFD
:10060E00FFFFFFFFFFFFFFFFFFFCE08F3FFFFEFE40
:10061E00FDFDFB1BC3F373B9B9D9EC743808C0F8F0
:10062E0000F8E0841874ECF9D9B973F3E3037BF99D
:10063E00FDFCFEFE7F1F83F8FCFFFFFFFFFFFFFFA9
:10064E00FFFFFFFFFFFFFFFFFFFFFFFFFFFFFFFFAC
:10065E00FFFFFFFFFFFFFFFFFFFFFFFFFFFFFFFF9C
:10066E00FFFFFFFFFFFFFFFFFFFFFFFFFFFFFFFF8C
:10067E00FFFFFFFFFFFFFFFFFFFFFFFFFFFFFFFF7C
:10068E00FFFFFFFFFFFFFFFFFFFFFFFFFEFCF9F382
:10069E00E7CF9838397A7BFDFDFEFEFFF8F3CF9F4A
:1006AE0020BFCFE7F0FEFEFDFD797B7A39B998CFFA
:1006BE00EFE7F3F8FCFFFFFFFFFFFFFFFFFFFFFF7A
:1006CE00FFFFFFFFFFFFFFFFFFFFFFFFFFFFFFFF2C
:1006DE00FFFFFFFFFFFFFFFFFFFFFFFFFFFFFFFF1C
:1006EE00FFFFFFFFFFFFFFFFFFFFFFFFFFFFFFFF0C
:1006FE00FFFFFFFFFFFFFFFFFFFFFFFFFFFFFFFFFC
:10070E00FFFFFFFFFFFFFFFFFFFFFF3F3F3FFFFF2B
:10071E003F3F3FFFFF7E3E3E3C3C7D7DFDFDFDFDB0
:10072E007D3D3D3D3D7DFDFCFEFE3F3F3FFFFF3FDE
:10073E003F3FFFFF3F3F3FFFFFFFFFFFFFFFFFFF7B
:10074E00FFFFFFFFFFFFFFFFFFFFFFFFFFFFFFFFAB
:10075E00FFFFFFFFFFFFFFFFFFFFFFFFFFFFFFFF9B
:10076E00FFFFFFFFFFFFFFFFFFFFFFFFFFFFFFFF8B
:10077E00FFFFFFFFFFFFFFFFFFFFFFFFFFFFFFFF7B
:10078E00FFFFFFFFFFFFFFFFFFFFFF0000007F3FA8
:10079E00000000FFFF000000FEFC000000FFFFF065
:1007AE00E0C0C68E0C1C3C7FFFFF0000007F3F00A8
:1007BE000000FFFF000000FFFFFFFFFFFFFFFFFF36
:1007CE00FFFFFFFFFFFFFFFFFFFFFFFFFFFFFFFF2B
:1007DE00FFFFFFFFFFFFFFFFFFFFFFFFFFFFFFFF1B
:1007EE00FFFFFFFFFFFFFFFFFFFFFFFFFFFFFFFF0B
:1007FE00FFFFFFFFFFFFFFFFFFFFFFFFFFFFFFFFFB
:10080E00FFFFFFFFFFFFFFFFFFFFFFE0E0E0FCFE4B
:10081E00E0E0E0FFFFF8F8F0F1E3E0E0F0FFFFFFCB
:10082E00F9F1E1E3E3E0F0F8FFFFE0E0E0FCFEE0E9
:10083E00E0E0FFFFE0E0E0FFFFFFFFFFFFFFFFFF55
:10084E00FFFFFFFFFFFFFFFFFFFFFFFFFFFFFFFFAA
:10085E00FFFFFFFFFFFFFFFFFFFFFFFFFFFFFFFF9A
:10086E00FFFFFFFFFFFFFFFFFFFF0000E0F0F8FCC0
:10087E00FEFE7E7E7E7E7E7E7E7EFEFEFEFCF0E0B8
:10088E0000000000FFFFFFFFFFFF00000000000060
:10089E000000FFFFFFFFFFFF00000000FFFFFFFF54
:1008AE00FFFF0000000000000000FFFFFFFFFFFF42
:1008BE0000000000FFFFFFFFFFFF00000000000030
:1008CE000000FFFFFFFFFFFF0000000003070F1FE8
:1008DE003F3F3F3F3F3F3F3F3F3F3F3F1F0F0703DE
:1008EE000000000000000080C0E0E0F0F8FEFEFE18
:1008FE00FEFE0000000000000000000000000003EB
:10090E000303FFFFFFFFFFFFFFFF000000000000DB
:10091E0000000000000000000000FFFFFFFFFFFFCF
:10092E00FFFF0000000000000000000000000000BB
:10093E000000FFFFFFFFFFFFFFFF000000000000B1
:10094E00000000000000003F3F3F3F3F3F3F3F3F62
:10095E003F3F3F3F3F3F000000000000E0F0F8FC4B
:10096E00FEFE7E7E7E7E7E7E7E7EFEFEFEFCF8E0BF
:10097E00000000000F0F0F0F0F0F0000000000000F
:10098E000000FFFFFFFFFFFF00000000F0F8FCFE7D
:10099E00FFFF7F3F3F3F3F3F3F3F3F3F3F1F0F0721
:1009AE0000000000FFFFFFFFFFFF0000000000003F
:1009BE000000000000000000000000003F3F3F3F2D
:1009CE003F3F3F3F3F3F3F3F3F3F3F3F3F3F3F3F29
:1009DE0000000000F0F8F8FCFEFE7E7E7E7E7E7E3D
:1009EE007E7EFEFEFEFCF8F0000000000F0F0F0FE3
:1009FE000F0F0000000000000000FFFFFFFFFFFFD1
:100A0E00000000000000000000003F3F3F3F3F3F5E
:100A1E003F3FFFFFFFFBF1E000000000F8F8F8F8A1
:100A2E00F8F80000000000000080FFFFFFFFFFFF4E
:100A3E000000000003070F1F3F3F3F3F3F3F3F3F78
:100A4E003F3F3F3F1F0F0703000000000000000064
:100A5E00000000000080E0F8FCFEFEFEFEFE7E7E42
:100A6E00000000000000000080E0F8FCFFFF3F1FC8
:100A7E0007FFFFFFFFFF000000000080E0F0FCFF1B
:100A8E00FFBF9F878180808080FFFFFFFFFF8080F8
:100A9E0000000001071F1F1F1F1F1F1F1F1F1F1FEB
:100AAE001FFFFFFFFFFF1F1F0000000000000000E0
:100ABE00000000000000007E7E7F7F7F7F7F7E7EB5
:100ACE0000000000FEFEFEFEFEFE7E7E7E7E7E7E30
:100ADE007E7E7E7E7E7E7E7E00000000FFFFFFFF1C
:100AEE00FFFF0000000000000000000000000000FA
:100AFE00000000003F7FFFFFFF7F7E7E7E7E7E7EBA
:100B0E007E7EFEFEFEFCF8F000000000F0F0F0F13C
:100B1E00F0F00000000000000000FFFFFFFFFFFFED
:100B2E00000000000F1F3F3F3F3F3F3F3F3F3F3F13
:100B3E003F3F3F3F3F3F1F0F00000000E0F0F8FC3B
:100B4E00FEFE7E7E7E7E7E7E7E7EFEFEFEFCF8F0CD
:100B5E0000000000FFFFFFFFFFFF0000000000008D
:100B6E0000000F0F0F0F0F0F00000000FFFFFFFF21
:100B7E00FFFF7E7E7E7E7E7E7E7EFEFEFEFCF8F09B
:100B8E0000000000FFFFFFFFFFFF0000000000005D
:100B9E000000FFFFFFFFFFFF00000000070F1F3FD9
:100BAE003F3F3F3F3F3F3F3F3F3F3F3F3F1F0F07CF
:100BBE0000000000FEFEFEFEFEFEFE7E7E7E7E7EBF
:100BCE007E7EFEFEFEFEFEFE000000000F0F0F0FEB
:100BDE000F0F0F0000000080E0FCFFFFFFFF3F0F34
:100BEE00000000000000000000000000C0F0FCFF4C
:100BFE00FFFFFF3F07010000000000000000008023
:100C0E0080C0F8FEFFFFFFFF9F870000000000007E
:100C1E000000000000001F1F1F1F1F1F1F1F1F1F90
:100C2E001F1F000000000000000000000000F8FC84
:100C3E00FEFFFF3F3F3F3F3F3FFFFFFEFCF8000040
:100C4E000000000000007FFFFFFFFFE0E0E0E0E0BB
:100C5E00E0FFFFFFFF3F0000000000000000FCFE71
:100C6E00FFFFFF070707070707FFFFFFFEFC000058
:100C7E00000000000000FFFFFFFFFF8080808080EB
:100C8E0080FFFFFFFFFF0000000000000000030FC9
:100C9E001F1F1F1F1F1F1F1F1F1F1F0F07030000D8
:100CAE000000000000F8FCFEFEFEFE7E7E7E7E7ED4
:100CBE007E7EFEFEFEFCF8F00000000000FFFFFF4F
:100CCE00FFFFFF00000000000000FFFFFFFFFFFF1F
:100CDE000000000000070F1F3F3F3F3F3F3F3F3FD9
:100CEE003F3FFFFFFFFFFFFF0000000000F8F8F896
:100CFE00F8F8F800000000000000FFFFFFFFFFFF04
:100D0E000000000000070F1F3F3F3F3F3F3F3F3FA8
:100D1E003F3F3F3F1F0F0703000000000000000091
:100D2E0000000000000000000000000000000000B5
:100D3E0000000000000000000000000000000000A5
:100D4E000000000000000000000000000000000095
:100D5E000000000000000000000000000000000085
:02119E0000004F
:102D80001233EB12001ED2DF53B3FD43B402D291D3
:102D900053B3FE43B401C29043B32053B4DF43B3F3
:102DA0000453B4FB43B10853B2F753E8F043E802CD
:102DB00043B18053B27FE4F5F643F60443E101D218
:102DC000AED2AF12354C122764753D08753EFF75C3
:102DD0003F047540707B80E4FDFF122F647FD07E3E
:102DE000077D007C001231CE1233887F647E007D27
:102DF000007C001231CE7F05122AB1753D06753E6A
:102E0000FF753F087540707B407D057F38122F6449
:082E1000E4FF1229EFC2DE22EB
:10354C00438910538EEF5389DF758BCA758DFAD270
:06355C00ABD2AFD28E22BB
:1033EB0043B38053B47F43AC0153ADFEA2AF920005
:1033FB0075C7AA75C75575910143AC0175C7AA75F9
:10340B00C755E4F591A20092AFD288D2A8D2AF22D1
:10001E0053B1EF43B210A2AF9200C2AF75C7AA752B
:10002E00C75543910143C60875C7AA75C755539165
:10003E00FEA20092AF43DF0253DFFA53DFEFD2DCB2
:0A004E0053DF3FE4F5D175D9C72256
:0C35A100AD07AC068CD5EDF5DDD2DE22C6
:10349E001233887BFF7A00795E7535107D027F19B5
:1034AE001232647BFF7A0079697535107D047F3C9A
:0334BE0002326473
:1034C1001233887BFF7A00795E7535107D027F1992
:1034D1001232647BFF7A00796C7535107D047F3977
:0334E10002326450
:1029EF00EFB40A004003022AB09029FFF828287399
:1029FF00022A1D022A2B022A39022A47022A5502CD
:102A0F002A63022A71022A7F022A8D022A9B753DB0
:102A1F0006753EFF753F08754078807C753D0675DD
:102A2F003EFF753F087540F0806E753D06753EFFA1
:102A3F00753F097540688060753D06753EFF753FAF
:102A4F00097540E08052753D06753EFF753F0A756A
:102A5F0040588044753D06753EFF753F0A7540D05E
:102A6F008036753D06753EFF753F0B7540488028D3
:102A7F00753D06753EFF753F0B7540C0801A753D5D
:102A8F0006753EFF753F0C754038800C753D067519
:102A9F003EFF753F0C7540B07B587D017F40122F74
:022AAF0064229F
:102AB100EFB40A004003022B72902AC1F828287350
:102AC100022ADF022AED022AFB022B09022B17023E
:102AD1002B25022B33022B41022B4F022B5D753D1F
:102AE10006753EFF753F08754078807C753D06751B
:102AF1003EFF753F087540F0806E753D06753EFFDF
:102B0100753F097540688060753D06753EFF753FEC
:102B1100097540E08052753D06753EFF753F0A75A7
:102B210040588044753D06753EFF753F0A7540D09B
:102B31008036753D06753EFF753F0B754048802810
:102B4100753D06753EFF753F0B7540C0801A753D9A
:102B510006753EFF753F0C754038800C753D067556
:102B61003EFF753F0C7540B07B387D017F20122FF1
:022B71006422DC
:102B7300EFB40A004003022C34902B83F828287307
:102B8300022BA1022BAF022BBD022BCB022BD902AE
:102B93002BE7022BF5022C03022C11022C1F753D8F
:102BA30006753EFF753F08754078807C753D067558
:102BB3003EFF753F087540F0806E753D06753EFF1C
:102BC300753F097540688060753D06753EFF753F2A
:102BD300097540E08052753D06753EFF753F0A75E5
:102BE30040588044753D06753EFF753F0A7540D0D9
:102BF3008036753D06753EFF753F0B75404880284E
:102C0300753D06753EFF753F0B7540C0801A753DD7
:102C130006753EFF753F0C754038800C753D067593
:102C23003EFF753F0C7540B07B207D017F08122F5E
:022C3300642219
:082922008F338E328D318C30B1
:10292A00121C6D8F378E368D358C34E47B0AFAF99A
:10293A00F8121DBE8F39E47B0AFAF9F8AF37AE36C2
:10294A00AD35AC34121DBEAF038F38D3E5399400D0
:10295A00748094804007AF39122B738015753D0639
:10296A00753EFF753F0D7540287B207D017F08125B
:10297A002F64AF38122AB1AF33AE32AD31AC30C0AA
:10298A0004C005C006C007AF37AE36AD35AC34E477
:10299A00121C2FA804A905AA06AB07D007D006D097
:1029AA0005D0041219BB8F338E328D318C30E4FF7F
:1029BA00FE7D207C41AB33AA32A931A830121AB06D
:1029CA00121C6D8F378E368D358C34753D06753EEB
:1029DA00FF753F087540707B407D057F38122F6474
:0529EA00AF370229EFE8
:102EFB00753D08753EFF753F007540707B80E4FDA6
:102F0B00FF122F64C291D2907FF47E017D007C0072
:102F1B001231CEC2907FF47E017D007C001231CE47
:102F2B00D2907FF47E017D007C001231CEC2907F67
:102F3B00F47E017D007C001231CED2907FF47E01B5
:102F4B007D007C001231CEC2907FF47E017D007C2F
:092F5B00001231CEC2910233884C
:10347300E4FFFE43E13043E20E43A210C2EFD2EE7B
:1034830030EFFDAFC37E00EFC4F8540FC868FFEE02
:0A349300C454F048FEADC2ED42073C
:01349D00220C
:1035030075C7AA75C755A2AF9200C2AF75C7AA7592
:0A351300C755439F80A20092AF222B
:1034E400AD07AC06EC540FFEED54F0FFEEC4F854F7
:0F34F400F0C8EFC4540F48F5CFED540FF5CE22BA
:1011A0000000000000000000002F00000000070009
:1011B000070000147F147F1400242A7F2A12006283
:1011C000640813230036495522500000050300002F
:1011D00000001C224100000041221C000014083EB7
:1011E00008140008083E0808000000A0600000087D
:1011F00008080808000060600000002010080402D1
:10120000003E5149453E0000427F4000004261518E
:101210004946002141454B31001814127F10002728
:1012200045454539003C4A494930000171090503EB
:1012300000364949493600064949291E000036361C
:10124000000000005636000000081422410000147F
:10125000141414140000412214080002015109065C
:1012600000324959513E007C1211127C007F4949DD
:101270004936003E41414122007F4141221C007F0E
:1012800049494941007F09090901003E4149497A1C
:10129000007F0808087F0000417F41000020404196
:1012A0003F01007F08142241007F40404040007F02
:1012B000020C027F007F0408107F003E4141413E46
:1012C000007F09090906003E4151215E007F09198E
:1012D00029460046494949310001017F0101003F8B
:1012E0004040403F001F2040201F003F4038403F0B
:1012F000006314081463000708700807006151496F
:10130000454300007F41410000552A552A55000001
:1013100041417F000004020102040040404040407F
:10132000000001020400002054545478007F484417
:10133000443800384444442000384444487F00384E
:101340005454541800087E0901020018A4A4A47C77
:10135000007F080404780000447D40000040808441
:101360007D00007F102844000000417F4000007C89
:1013700004180478007C0804047800384444443895
:1013800000FC242424180018242418FC007C0804E1
:10139000040800485454542000043F444020003CBA
:1013A0004040207C001C2040201C003C4030403C41
:1013B000004428102844001CA0A0A07C00446454D1
:1013C0004C44141414141414000000000000000015
:1013D0000000000000000000000000F80000000015
:1013E000000000333000000000100C06100C060056
:1013F000000000000000000040C07840C0784000BD
:10140000043F04043F040400007088FC083000001E
:10141000001820FF211E0000F008F000E018000076
:1014200000211C031E211E0000F00888700000002F
:101430001E2123241927211010160E000000000081
:101440000000000000000000000000E0180402009E
:10145000000000071820400000020418E00000000F
:101460000040201807000000404080F0804040000D
:101470000202010F01020200000000F00000000063
:101480000101011F01010100000000000000000037
:1014900080B07000000000000000000000000000AC
:1014A0000001010101010101000000000000000035
:1014B00000303000000000000000000080601804D0
:1014C000006018060100000000E010080810E000AD
:1014D000000F102020100F00001010F80000000076
:1014E0000020203F202000000070080808887000BD
:1014F000003028242221300000300888884830003D
:101500000018202020110E000000C02010F800005C
:1015100000070424243F240000F8088888080800F5
:101520000019212020110E0000E01088881800000A
:10153000000F112020110E0000380808C8380800DC
:101540000000003F0000000000708808088870005C
:10155000001C222121221C0000E010080810E000DD
:101560000000312222110F00000000C0C000000066
:10157000000000303000000000000080000000008B
:101580000000806000000000000080402010080083
:10159000000102040810200040404040404040004C
:1015A0000404040404040400000810204080000027
:1015B0000020100804020100007048080808F0002C
:1015C0000000003036010000C030C828E810E000FC
:1015D0000718272423140B000000C038E000000087
:1015E000203C23020227382008F8888888700000F1
:1015F000203F202020110E00C030080808083800C5
:10160000071820202010080008F808080810E0003B
:10161000203F202020100F0008F88888E8081000DC
:10162000203F20202320180008F88888E8081000B0
:10163000203F200003000000C030080808380000E8
:1016400007182020221E020008F808000008F808E9
:10165000203F210101213F20000808F80808000070
:101660000020203F2020000000000808F8080800A3
:10167000C08080807F00000008F888C0281808001B
:10168000203F20012638200008F808000000000054
:10169000203F20202020300008F8F800F8F808004B
:1016A000203F003F003F200008F830C00008F80845
:1016B000203F200007183F00E01008080810E00055
:1016C0000F10202020100F0008F808080808F0006C
:1016D000203F210101010000E01008080810E0008F
:1016E0000F18242438504F0008F888888888700024
:1016F000203F2000030C30200070880808083800C4
:101700000038202121221C00180808F808081800B9
:101710000000203F2000000008F808000008F8083A
:10172000001F202020201F000878880000C83808EB
:10173000000007380E010000F80800F80008F80063
:10174000033C0700073C03000818688080681808FD
:1017500020302C03032C30200838C800C83808007B
:101760000000203F2000000010080808C8380800CA
:101770002038262120201800000000FE020202006E
:101780000000007F40404000000C30C0000000001E
:10179000000000010638C00000020202FE00000046
:1017A000004040407F0000000000040202020400EC
:1017B0000000000000000000000000000000000029
:1017C0008080808080808080000202040000000011
:1017D0000000000000000000000080808080000009
:1017E0000019242222223F2008F8008080000000F7
:1017F000003F112020110E000000008080800000BA
:10180000000E112020201100000000808088F800C8
:10181000000E112020103F200000808080800000FA
:10182000001F222222221300008080F0888888185E
:101830000020203F20200000000080808080800069
:10184000006B94949493600008F8008080800000FE
:10185000203F210000203F200080989800000000D9
:101860000020203F20200000000000809898000009
:1018700000C08080807F000008F800008080800029
:10188000203F24022D302000000808F8000000004E
:101890000020203F20200000808080808080800009
:1018A000203F20003F20003F80800080808000009B
:1018B000203F210000203F20000080808080000029
:1018C000001F202020201F0080800080800000005A
:1018D00080FFA12020110E00000000808080800089
:1018E000000E112020A0FF8080808000808080007A
:1018F00020203F21200001000000808080808000A7
:101900000033242424241900008080E0808000001B
:101910000000001F20200000808000000080800068
:10192000001F202020103F208080800000808080C9
:1019300000010E3008060100808000800080808059
:101940000F300C030C300F0000808000808080007E
:101950000020312E0E3120008080800000808080A9
:1019600080818E7018060100008080808080800059
:101970000021302C2221300000000000807C020277
:1019800000000000003F404000000000FF00000099
:1019900000000000FF0000000002027C8000000048
:1019A0000040403F00000000000601010202040464
:0819B00000000000000000002F
:1035620043B30843B40843B31043B41075BE02D248
:02357200C6226F
:0935AD00D293D294C294C293227D
:0735D600D293C294D29422AB
:0B0006001233C1120011AF041233C10D
:080011002094FDD293C293225A
:0733BA00AC071235AD7F786E
:1033C100C293E4FEEEC3940874809480501BAD0751
:1033D100530580ED64807004D2948002C294EF257D
:0933E100E0FFD293C2930E80DBE1
:0133EA0022C0
:0E3585001233BA120011E4FF1200060235D60E
:0E3593001233BA1200117F401200060235D624
:10341B00EF24B0FFEE33FEE4FDFC123436E4FDFC8A
:0B342B00FFFE1234367F10E4FDFCFEB3
:10343600AB07AA06ED4C6003023593AF0312358540
:013446002263
:023320008F6BB1
:10332200E4F9E9FF7E00C39408748094805023126C
:10333200341BE4F56CC3E56C948074809480500F68
:10334200AF6B7E007D017C00123436056C80E6098D
:0233520080D029
:013354002256
:10344700A907ED24B0FFE433FEE4FDFC123436E9AE
:1034570054F0C4540F7E004410FFE4FDFC123436D0
:0C346700E9540FFF7E00E4FDFC02343647
:103535007F8D123432E4FDFC7F14FE123436E4FD37
:07354500FC7FAFFE023436EB
:10357400E4FDFC7F8D12342CE4FDFC7FAEFE0234AE
:013584003610
:10338800E4F9E9FF7E00C394087480948050221207
:10339800341BE4F530C3E530948074809480500E7B
:1033A8007D017C00E4FFFE123436053080E7098099
:0133B800D143
:0133B90022F1
:10335500E4F9E9FF7E00C394087480948050231239
:10336500341BE4F51FC3E51F948074809480500FCF
:103375007D017C007F017E00123436051F80E60941
:0233850080D0F6
:013387002223
:042847008F398D3AFE
:10284B00E4F53DF9EB24E0F53DD3EF947F748094F0
:10285B00804007E4F539053A053AE53C6410707A97
:10286B00AD3AAF39123447E4F9E9C3940874809454
:10287B0080502975F010E53DA429F582E435F0F57B
:10288B0083E58224C8F582E5833413F583E493FF53
:10289B007E007D017C001234360980CDE53A04FDC3
:1028AB00AF39123447E4F9E9C3940874809480502B
:1028BB006575F010E53DA429F582E435F0F583E567
:1028CB008224D0F582E5833413F583E493FF7E00F5
:1028DB007D017C001234360980CDAD3AAF3912340C
:1028EB0047E4F9E9C3940674809480502975F00687
:1028FB00E53DA424A0F582E5F03411F583E58229AA
:10290B00F582E43583F583E493FF7E007D017C0043
:06291B001234360980CDE4
:012921002293
:04351D008F39A90534
:103521007F017E00AD0119ED6009AD397C00121DEE
:033531001B80F10B
:013534002274
:082E18008F308D318A328B33BB
:102E2000E4F538F536E536C395345065C3E5349599
:102E30003614FD7F0A12351DAC32AD33CFCDCFCE67
:102E4000CCCE121D2D7C007D0A121D2D8D37E5384C
:102E50007023E53414FFE536C39F5019E53770122F
:102E6000E535C3138536F0A42530FF85353C7B203E
:102E70008016753801E535C3138536F0A42530FF7B
:102E8000E5372430FB85353CAD31122847053680C7
:012E900094AD
:012E9100221E
:0A3264008F308D318B328A338934AC
:10326E00E4F536AB32AA33A9348536827583001263
:10327E001CEEFB602485353CAD31AF30122847740F
:10328E00082530F530D39478748094804007E4F5A7
:09329E003005310531053680CA06
:0132A7002204
:042F64008F3A8B3CD9
:102F6800E4F541F542E53D5407700BE53D131313B5
:102F7800541FF544800AE53D131313541F04F54408
:102F88008D44E544C3953D503BAD44AF3A123447B8
:102F9800853A43E543C3953C5026AB3EAA3FA9403A
:102FA8000542E542AE417002054114F5828E831256
:102FB8001CEEFF7E007D017C00123436054380D371
:042FC800054480BE7E
:012FCC0022E2
:042CE1008F088D09C2
:102CE500AF0DAE0CAD0BAC0A121C6D8F128E118D93
:102CF500108C0FAA11AB12753402850E35AD09AFD4
:102D050008122E18E5082414FF850E3C7B2EAD090C
:102D1500122847AF0DAE0CAD0BAC0AC004C005C000
:102D250006C007AF12AE11AD10AC0FE4121C2FA8F0
:102D350004A905AA06AB07D007D006D005D0041212
:102D450019BB8F0D8E0C8D0B8C0AE4FFFE7D207C4C
:102D550041AB0DAA0CA90BA80A121AB0121C6D8F53
:102D6500128E118D108C0FE5082419FFAA11AB12D4
:0B2D7500753401850E35AD09022E18E3
:10276400123562E4FDFC7FAEFE123425E4FDFC7FED
:1027740040FE123436E4FDFC7FB0FE123436E4FD34
:10278400FC7F81FE123436E4FDFC7FFFFE123436FA
:10279400E4FDFC7FA1FE123436E4FDFC7FA6FE12AC
:1027A4003436E4FDFC7FA8FE123436E4FDFC7F3FA2
:1027B400FE123436E4FDFC7FC8FE123436E4FDFC20
:1027C4007FD3FE123436E4FDFCFFFE123436E4FD02
:1027D400FC7FD5FE123436E4FDFC7F80FE123436D5
:1027E400E4FDFC7FD8FE123436E4FDFC7F05FE12C6
:1027F4003436E4FDFC7FD9FE123436E4FDFC7FF16F
:10280400FE123436E4FDFC7FDAFE123436E4FDFCBD
:102814007F12FE123436E4FDFC7FDBFE123436E414
:10282400FDFC7F30FE123436E4FDFC7F8DFE123455
:1028340036E4FDFC7F14FE123436E4FDFC7FAFFE6B
:0328440002343625
:03000000022C359A
:102C350075C7AA75C75575FD5A75C7AA75C7557560
:102C4500FDA5787FE4F6D8FD9000007FFF7E03E4C4
:0C2C5500F0A3DFFCDEFA75816C022C9C01
:1019B800021CD9E86480F8E933E83360110460F068
:1019C800ED33EC337009E8FCE9FDEAFEEBFF220495
:1019D80060DED3EB9FEA9EE99DE8C2E78CF0C2F790
:1019E80095F0400CE8CCF8E9CDF9EACEFAEBCFFB5C
:1019F800121CA485D0F05804700320D5B3E80470F5
:101A0800075002B2D5021CE392D5EC0460F7E4CC8F
:101A1800C0E0C398F8603B94186008400DD0E0FB24
:101A2800021CBBE4FBFAC9FC8028E830E406E4C9E0
:101A3800FBE4CAFCE830E305E4C9CACBFCE8540778
:101A48006010F8C3E913F9EA13FAEB13FBEC13FC83
:101A5800D8F130F52FC3E49CFCEF9BFFEE9AFEED26
:101A680099FDD0E0FBEF4E4D4C701222DB03021CB7
:101A7800E0EC2CFCEF33FFEE33FEED33FDED30E709
:101A8800EB021CBBEF2BFFEE3AFEED39FDD0E0FB7D
:101A980050130BBB0003021CE3ED13FDEE13FEEF26
:081AA80013FFEC13FC021CBB50
:101AB000EC4D6011E8497017ED33EC3304600DE430
:101AC000FCFFFEFD22E933E8330470F8021CD91252
:101AD0001CA458046009E4CC248150062850090253
:101AE0001CE3284003021CE0C0E0EB4A7044B980CC
:101AF00006D0E0FB021CCFEF4E701CBD8008EBFF50
:101B0000EAFEE9FD80EBE98DF0A4FEE5F0021B9909
:101B1000E9CDF9EAFEEBFFEF89F0A4FCE5F0CE8910
:101B2000F0A42EFFE435F0CD89F0A42DFEE435F0CD
:101B30008067EF4E7005BD80D780C3EF8BF0A4ACFB
:101B4000F0EE8BF0A42CFCE435F0F8EF8AF0A42C36
:101B5000E5F038FCE433CB8DF0A42CFCE5F03BF849
:101B6000EE8AF0A42CFCE5F038F8E433CF89F0A439
:101B70002CFCE5F038CF3400CE89F0A42FFFE5F03F
:101B80003EFEE433C98DF0A42EFEE5F039CD8AF097
:101B9000A42FFFE5F03EFEE43DFD33D0E0FB50070F
:101BA0000BBB000F021CE3EC2CFCEF33FFEE33FE0B
:061BB000ED33FD021CBB39
:101BB60074F8CC6480CCC86480C8F58204604FC3D6
:101BC600EB9FF5F0EA9E42F0E99D42F0E89C45F075
:101BD600603C501DE5825FFFE582D313CB5BCBF4FF
:101BE6002B5582FB50280ABA002409B90020088028
:101BF6001DE5825BFBE582D313CF5FCFF4C3132FC2
:101C06005582FF50090EBE00050DBD00010CC3EB49
:101C16009FF5F0EA9E42F0E99D42F0E89C45F060AF
:091C260007CC4820E701B3EC22D1
:101C2F0075F020800E75F010800575F0087D007E30
:101C3F00007F003392D530D503121E50EC33401085
:101C4F00EF33FFEE33FEED33FDEC33FCD5F0ED2239
:0E1C5F00E5F0247EA2D513CC92E7CDCEFF2275
:101C6D00EDD2E7CD33EC3392D524814006E4FFFE6F
:101C7D00FDFC22FCE4CFCECDCC24E0501174FF80CE
:101C8D00EDC3CC13CCCD13CDCE13CECF13CF04706B
:071C9D00F030D5DE021E50FD
:101CA400E9D2E7C933E833F892D5EDD2E7CD33EC86
:071CB40033FC5002B2D522FF
:101CBB00EC30E7100FBF000C0EBE00080DBD00048A
:101CCB000BEB6014A2D5EB13FCED92E7FD2274FF36
:101CDB00FCFDFEFF22E480F8A2D574FF13FC7D808F
:031CEB00E480EFA3
:102C61000221E2E493A3F8E493A34003F68001F286
:102C710008DFF48029E493A3F85407240CC8C33374
:102C8100C4540F4420C8834004F456800146F6DF43
:102C9100E4800B01020408102040809032A8E47EF9
:102CA100019360BCA3FF543F30E509541FFEE49338
:102CB100A360010ECF54C025E060A840B8E493A3FF
:102CC100FAE493A3F8E493A3C8C582C8CAC583CA2A
:102CD100F0A3C8C582C8CAC583CADFE9DEE780BEE2
:0132E60000E7
:101CEE00BB010CE58229F582E5833AF583E02250AB
:101CFE0006E92582F8E622BBFE06E92582F8E222F5
:0D1D0E00E58229F582E5833AF583E493220E
:101D1B00EF8DF0A4A8F0CF8CF0A428CE8DF0A42EDC
:021D2B00FE2296
:101D2D00BC000BBE0029EF8DF084FFADF022E4CC9A
:101D3D00F875F008EF2FFFEE33FEEC33FCEE9DEC63
:101D4D00984005FCEE9DFE0FD5F0E9E4CEFD22EDA9
:101D5D00F8F5F0EE8420D21CFEADF075F008EF2FF3
:101D6D00FFED33FD4007985006D5F0F222C398FDE4
:051D7D000FD5F0EA2281
:101D820075F008758200EF2FFFEE33FECD33CDCC18
:101D920033CCC58233C5829BED9AEC99E58298409B
:101DA2000CF582EE9BFEED9AFDEC99FC0FD5F0D678
:101DB200E4CEFBE4CDFAE4CCF9A88222B800C1B9A2
:101DC2000059BA002DEC8BF084CFCECDFCE5F0CBE0
:101DD200F97818EF2FFFEE33FEED33FDEC33FCEB19
:101DE20033FB10D703994004EB99FB0FD8E5E4F9D4
:101DF200FA227818EF2FFFEE33FEED33FDEC33FCC1
:101E0200C933C910D7059BE99A4007EC9BFCE99AB4
:101E1200F90FD8E0E4C9FAE4CCFB2275F010EF2FF9
:101E2200FFEE33FEED33FDCC33CCC833C810D707F9
:101E32009BEC9AE899400AED9BFDEC9AFCE899F834
:0E1E42000FD5F0DAE4CDFBE4CCFAE4C8F922C7
:0E1E5000C3E49FFFE49EFEE49DFDE49CFC22A3
:101E5E00EB9FF5F0EA9E42F0E99D42F0E89C45F0DA
:011E6E002251
:101E6F00E8600FECC313FCED13FDEE13FEEF13FF51
:031E7F00D8F12275
:00000001FF
