:1004D10053B1BF53B2BF53B17F53B27F75985043ED
:1004E1008920438780438E1053C4DFAB07AA06A936
:1004F10005A8047F407E427D0F7C0012003FEF047F
:09050100F404F58DD28ED299228A
:10023B008F1D8E1C8D1B8C1A53B1BF53B2BF53B184
:10024B007F53B27F75985043878053C4F843C420C3
:10025B00AB1DAA1CA91BA81A7F407E427D0F7C00F8
:10026B0012003FC374FF9FFF74FF9EFEE49DFDE4ED
:10027B009CFC78081200E28FC6AB1DAA1CA91BA818
:10028B001A7F407E427D0F7C0012003FC374FF9F9C
:09029B00FF8FC543C408D299226B
:070571003098FDAF99C2981C
:010578002260
:08057900C2998F993099FD220F
:1002A4008F248E238D228C2153B1FB53B2FB53B385
:1002B400BF43B44075F85075C40853C4DFAB24AAD7
:1002C40023A922A8217F407E427D0F7C0012003F9B
:1002D400C374FF9FFF74FF9EFEE49DFDE49CFC78C5
:1002E400081200E28FC6AB24AA23A922A8217F40CA
:1002F4007E427D0F7C0012003FC374FF9FFF8FC5B9
:0403040043C40822C4
:0705810030F8FDAF9AC2F84B
:010588002250
:08058900C2F98F9A30F9FD223E
:1003F0008F288E278D268C25538EF7438901D28C2A
:10040000E4FFFEFDFCAB28AA27A926A825C31200FD
:10041000D16025758A7E758CFF308DFDC28DE528F3
:1004200024FFF528E52734FFF527E52634FFF526D8
:0B043000E52534FFF52580C8C28C22B2
:10043B008F3C8E3B8D3A8C39538EF7438901D28C8E
:10044B00E4FFFEFDFCAB3CAA3BA93AA839C3120062
:10045B00D16025758ACA758CFA308DFDC28DE53C4D
:10046B0024FFF53CE53B34FFF53BE53A34FFF53A29
:0B047B00E53934FFF53980C8C28C223F
:100486008F2C8E2B8D2A8C29538EEF438910D28E7A
:10049600E4FFFEFDFCAB2CAA2BA92AA829C3120057
:1004A600D16025758BEA758DCB308FFDC28FE52C1B
:1004B60024FFF52CE52B34FFF52BE52A34FFF52A2E
:0B04C600E52934FFF52980C8C28E2212
:100308008F308E2F8D2E8C2D53C9BF53C9DF43C913
:1003180010D2CAE4FFFEFDFCAB30AA2FA92EA82DEF
:10032800C31200D1602575CC3075CDF830CFFDC231
:10033800CFE53024FFF530E52F34FFF52FE52E34D7
:0E034800FFF52EE52D34FFF52D80C8C2CA2228
:100356008F348E338D328C3175C40743C408E4FF65
:10036600FEFDFCAB34AA33A932A831C31200D1601A
:100376002875C52C75C6CFE5C430E4FB53C4EFE53C
:100386003424FFF534E53334FFF533E53234FFF535
:0D03960032E53134FFF53180C553C4F72244
:1003A3008F388E378D368C3575C40743C408E4FF08
:1003B300FEFDFCAB38AA37A936A835C31200D160BD
:1003C3002875C5D875C6FFE5C430E4FB53C4EFE513
:1003D3003824FFF538E53734FFF537E53634FFF5D4
:0D03E30036E53534FFF53580C553C4F722EB
:100544000119000C08FF05A6FF0591FF0598FF059A
:010554009F07
:1001A70012050AE4F514F516E514701A3092707FFB
:1001B700D07E07FDFC12043B30926475160175145E
:1001C7000130925B80FB3092167FD07E077D007CEA
:1001D7000012043B309208E4F516F5142092FD3026
:1001E700901D7F057E007D007C0012043B30900F40
:1001F7000516E516D3940340037516032090FD30CA
:10020700801D7F057E007D007C0012043B30800F3F
:100217001516E516C3940150037516012080FDE5F8
:100227001675F003A42408F808E6FA08E6F91200A0
:04023700F50201AF1C
:10050A0043B30453B4FB43B30153B4FE43B10153A1
:10051A00B2FE53B37F43B48053B3DF43B42053B125
:05052A00FD43B20222B6
:07059100D297C295C281223E
:07059800C297D295C2812237
:07059F00C297C295D2812230
:0705A600C297C295C2812239
:1005560043E10153E1CF43B12053B2DF43F610D25A
:02056600AE22C3
:0905680053E8F0EF540742E822C9
:0305BB00D2EE225B
:0605AD00A2EEE433FF2280
:10052F00AFC3EF75F010A4FFE5C2540F7C002FFF8F
:05053F00EC35F0FE2286
:0305BE00C2EF2267
:0405B30043E10122FD
:0405B70053E1FE22EC
:030000000200FB00
:1000FB0075C7AA75C75575FD5A75C7AA75C75575C6
:10010B00FDA5787FE4F6D8FD9000007FFF7E03E429
:0C011B00F0A3DFFCDEFA75813C020162FB
:100127000201A7E493A3F8E493A34003F68001F246
:1001370008DFF48029E493A3F85407240CC8C333D9
:10014700C4540F4420C8834004F456800146F6DFA8
:10015700E4800B0102040810204080900544E47EEF
:10016700019360BCA3FF543F30E509541FFEE4939D
:10017700A360010ECF54C025E060A840B8E493A364
:10018700FAE493A3F8E493A3C8C582C8CAC583CA8F
:10019700F0A3C8C582C8CAC583CADFE9DEE780BE47
:0105550000A5
:1000030075F008758200EF2FFFEE33FECD33CDCCB4
:1000130033CCC58233C5829BED9AEC99E582984037
:100023000CF582EE9BFEED9AFDEC99FC0FD5F0D614
:10003300E4CEFBE4CDFAE4CCF9A88222B800C1B93E
:100043000059BA002DEC8BF084CFCECDFCE5F0CB7C
:10005300F97818EF2FFFEE33FEED33FDEC33FCEBB5
:1000630033FB10D703994004EB99FB0FD8E5E4F970
:10007300FA227818EF2FFFEE33FEED33FDEC33FC5D
:10008300C933C910D7059BE99A4007EC9BFCE99A51
:10009300F90FD8E0E4C9FAE4CCFB2275F010EF2F96
:1000A300FFEE33FEED33FDCC33CCC833C810D70796
:1000B3009BEC9AE899400AED9BFDEC9AFCE899F8D1
:0E00C3000FD5F0DAE4CDFBE4CCFAE4C8F92264
:1000D100EB9FF5F0EA9E42F0E99D42F0E89C45F085
:0100E10022FC
:1000E200E8600FECC313FCED13FDEE13FEEF13FFFC
:0300F200D8F12220
:0600F5008A838982E47396
:00000001FF
