:1007AD0053B1BF53B2BF53B17F53B27F759850430E
:1007BD008920438780438E1053C4DFAB07AA06A957
:1007CD0005A8047F407E427D0F7C00120399EF0443
:0907DD00F404F58DD28ED29922AC
:1004C3008F318E308D2F8C2E53B1BF53B2BF53B1AA
:1004D3007F53B27F75985043878053C4F843C42039
:1004E300AB31AA30A92FA82E7F407E427D0F7C001E
:1004F300120399C374FF9FFF74FF9EFEE49DFDE406
:100503009CFC780812043C8FC6AB31AA30A92FA8F3
:100513002E7F407E427D0F7C00120399C374FF9FA0
:09052300FF8FC543C408D29922E0
:070861003098FDAF99C29829
:01086800226D
:08086900C2998F993099FD221C
:10052C008F358E348D338C3253B1FB53B2FB53B3B6
:10053C00BF43B44075F85075C40853C4DFAB35AA3B
:10054C0034A933A8327F407E427D0F7C0012039980
:10055C00C374FF9FFF74FF9EFEE49DFDE49CFC783A
:10056C000812043C8FC6AB35AA34A933A8327F409D
:10057C007E427D0F7C00120399C374FF9FFF8FC5D1
:04058C0043C408223A
:0708710030F8FDAF9AC2F858
:01087800225D
:08087900C2F98F9A30F9FD224B
:100688008F398E388D378C36538EF7438901D28C4B
:10069800E4FFFEFDFCAB39AA38A937A836C312041B
:1006A8002B6025758A7E758CFF308DFDC28DE539EE
:1006B80024FFF539E53834FFF538E53734FFF537E9
:0B06C800E53634FFF53680C8C28C22F6
:1006D3008F1F8E1E8D1D8C1C538EF7438901D28C68
:1006E300E4FFFEFDFCAB1FAA1EA91DA81CC3120438
:1006F3002B6025758ACA758CFA308DFDC28DE51F76
:1007030024FFF51FE51E34FFF51EE51D34FFF51D1F
:0B071300E51C34FFF51C80C8C28C22DE
:10071E008F3D8E3C8D3B8C3A538EEF438910D28E9B
:10072E00E4FFFEFDFCAB3DAA3CA93BA83AC3120474
:10073E002B6025758BEA758DCB308FFDC28FE53D15
:10074E0024FFF53DE53C34FFF53CE53B34FFF53B3E
:0B075E00E53A34FFF53A80C8C28E2255
:100003008F418E408D3F8C3E53C9BF53C9DF43C9D7
:1000130010D2CAE4FFFEFDFCAB41AA40A93FA83EB3
:10002300C312042B602575CC3075CDF830CFFDC2DB
:10003300CFE54124FFF541E54034FFF540E53F348A
:0E004300FFF53FE53E34FFF53E80C8C2CA22FD
:1005EE008F458E448D438C4275C40743C408E4FF87
:1005FE00FEFDFCAB45AA44A943A842C312042B60DE
:10060E002875C52C75C6CFE5C430E4FB53C4EFE5A1
:10061E004524FFF545E54434FFF544E54334FFF545
:0D062E0043E54234FFF54280C553C4F72276
:10063B008F498E488D478C4675C40743C408E4FF29
:10064B00FEFDFCAB49AA48A947A846C312042B6080
:10065B002875C5D875C6FFE5C430E4FB53C4EFE578
:10066B004924FFF549E54834FFF548E54734FFF5E4
:0D067B0047E54634FFF54680C553C4F7221D
:10005E00120812C283E4F522752801752901752A4A
:10006E00011208407F0412005112088FD2AFA290E5
:10007E00E433F523A291E433F52BA280E433F5218A
:10008E00E523B40111E52B700DE5217009E5227011
:10009E00057522018039E523702AE52BB4010FE5A1
:1000AE0021700BE529B40106E4F529752202E52B32
:1000BE00701DE521B40118E52AB40113E4F52A7583
:1000CE002203800BE4F522752901752A01C283E50E
:1000DE002224FE70030201CA147003020269240274
:1000EE006003020308A290E433F523A291E433F5F2
:1000FE002BA280E433F5212090147FFA7E007D0040
:10010E007C001206D3209006A290E433F523E5235B
:10011E00B4010E1208527FE87E037D007C001206A9
:10012E00D30201BAE523640160030201C2E52B602C
:10013E00030201C2E521707CA29033F523A291E463
:10014E0033F52BA280E433F5210525E52570020554
:10015E00242090147FFA7E007D007C001206D320AE
:10016E009006A290E433F523E5237004C283804405
:10017E00D3E5259400E5249400400CE52594F4E5A0
:10018E002494015002D283D3E52594F4E5249401FE
:10019E00400CE52594D0E52494075002C283D3E5A4
:1001AE002594D0E52494075003020132E4F524F59A
:1001BE0025020132C283E4F52202007CA290E433D0
:1001CE00F523A291E433F52BA280E433F521E52348
:1001DE00700E1208527FE87E037D007C001206D35B
:1001EE00806CE523706FE52B64017069E521706505
:1001FE00A29033F523A291E433F52BA280E433F5DC
:10020E00210525E52570020524E523B40107C283E7
:10021E00E4F5228040D3E5259400E5249400400CBB
:10022E00E52594F4E52494015002D283D3E5259478
:10023E00F4E5249401400CE52594D0E52494075070
:10024E0002C283D3E52594D0E52494074094E4F5C7
:10025E0024F525808D75290102007CA290E433F5EA
:10026E0023A291E433F52BA280E433F521E523702C
:10027E000E1208527FE87E037D007C001206D380AA
:10028E006CE523706FE52B706BE52164017065A240
:10029E009033F523A280E433F521A291E433F52BBC
:1002AE000525E52570020524E523B40107C283E484
:1002BE00F5228040D3E5259400E5249400400CE51A
:1002CE002594F4E52494015002D283D3E52594F4C9
:1002DE00E5249401400CE52594D0E52494075002C2
:1002EE00C283D3E52594D0E52494074094E4F52405
:1002FE00F525808D752A0102007CE4F52202007C32
:1008120043B30253B4FD43B10153B2FE43B101539A
:09082200B2FE53B1F743B2082203
:04085200AF27AE26F8
:0B085600D283E4FCFD1206D3C2832213
:03005B0002044F4D
:10044F00C0E0C0F0C083C082C0D075D000C000C073
:10045F0001C002C003C004C005C006C00712082BAC
:10046F008E2C8F2DE4FCFDF50FF50EF50DF50C75AB
:10047F0013E0751204F511F510751764F516F515DF
:10048F00F514751B88751A13F519F5181205908E4A
:10049F00268F2712089212088FD007D006D005D0CA
:1004AF0004D003D002D001D000D0D0D082D083D0DE
:0404BF00F0D0E03267
:100590008F0B8E0A8D098C08C3E51B9517FBE51A96
:1005A0009516FAE5199515F9E5189514F8C3E50BB4
:1005B000950FFFE50A950EFEE509950DFDE50895F9
:1005C0000CFC12030EC3E513950FFBE512950EFA12
:1005D000E511950DF9E510950CF8120769EF25174F
:0E05E000FFEE3516FEED3515FDEC3514FC2250
:1008400043E10153E1CF43B12053B2DF43F610D26D
:02085000AE22D6
:0900510053E8F0EF540742E822E5
:03088F00D2EE2284
:06088100A2EEE433FF22A9
:10082B00AFC3EF75F010A4FFE5C2540F7C002FFF90
:05083B00EC35F0FE2287
:03089200C2EF2290
:0408870043E1012226
:04088B0053E1FE2215
:030000000207E60E
:1007E60075C7AA75C75575FD5A75C7AA75C75575D4
:1007F600FDA5787FE4F6D8FD9000007FFF7E03E438
:0C080600F0A3DFFCDEFA75814902005E01
:10030E00E88FF0A4CC8BF0A42CFCE98EF0A42CFC8E
:10031E008AF0EDA42CFCEA8EF0A4CDA8F08BF0A40C
:10032E002DCC3825F0FDE98FF0A42CCD35F0FCEB6B
:10033E008EF0A4FEA9F0EB8FF0A4CFC5F02ECD3930
:0F034E00FEE43CFCEAA42DCE35F0FDE43CFC229D
:10035D0075F008758200EF2FFFEE33FECD33CDCC57
:10036D0033CCC58233C5829BED9AEC99E5829840DA
:10037D000CF582EE9BFEED9AFDEC99FC0FD5F0D6B7
:10038D00E4CEFBE4CDFAE4CCF9A88222B800C1B9E1
:10039D000059BA002DEC8BF084CFCECDFCE5F0CB1F
:1003AD00F97818EF2FFFEE33FEED33FDEC33FCEB58
:1003BD0033FB10D703994004EB99FB0FD8E5E4F913
:1003CD00FA227818EF2FFFEE33FEED33FDEC33FC00
:1003DD00C933C910D7059BE99A4007EC9BFCE99AF4
:1003ED00F90FD8E0E4C9FAE4CCFB2275F010EF2F39
:1003FD00FFEE33FEED33FDCC33CCC833C810D70739
:10040D009BEC9AE899400AED9BFDEC9AFCE899F873
:0E041D000FD5F0DAE4CDFBE4CCFAE4C8F92206
:10076900C2D5E830E70FB2D5E4C39BFBE49AFAE4BB
:1007790099F9E498F8EC30E717B2D512079F1203FC
:1007890099E4C39BFBE49AFAE499F9E498F88003A5
:1007990012039930D50DE4C39FFFE49EFEE49DFD4D
:0407A900E49CFC22AE
:10042B00EB9FF5F0EA9E42F0E99D42F0E89C45F027
:01043B00229E
:10043C00E8600FECC313FCED13FDEE13FEEF13FF9E
:03044C00D8F122C2
:00000001FF
