:1004370053B1BF53B2BF53B17F53B27F7598504387
:100447008920438780438E1053C4DFAB07AA06A9D0
:1004570005A8047F407E427D0F7C0012003FEF0419
:09046700F404F58DD28ED2992225
:1001A1008F248E238D228C2153B1BF53B2BF53B103
:1001B1007F53B27F75985043878053C4F843C4205E
:1001C100AB24AA23A922A8217F407E427D0F7C0077
:1001D10012003FC374FF9FFF74FF9EFEE49DFDE488
:1001E1009CFC78081200E28FC6AB24AA23A922A89E
:1001F100217F407E427D0F7C0012003FC374FF9F30
:09020100FF8FC543C408D2992205
:0704CA003098FDAF99C298C4
:0104D1002208
:0804D200C2998F993099FD22B7
:10020A008F0B8E0A8D098C0853B1FB53B2FB53B383
:10021A00BF43B44075F85075C40853C4DFAB0BAA8A
:10022A000AA909A8087F407E427D0F7C0012003F80
:10023A00C374FF9FFF74FF9EFEE49DFDE49CFC785F
:10024A00081200E28FC6AB0BAA0AA909A8087F40C8
:10025A007E427D0F7C0012003FC374FF9FFF8FC553
:04026A0043C408225F
:0704DA0030F8FDAF9AC2F8F3
:0104E10022F8
:0804E200C2F98F9A30F9FD22E6
:100356008F0F8E0E8D0D8C0C538EF7438901D28C28
:10036600E4FFFEFDFCAB0FAA0EA90DA80CC31200FC
:10037600D16025758A7E758CFF308DFDC28DE50FA7
:1003860024FFF50FE50E34FFF50EE50D34FFF50DF0
:0B039600E50C34FFF50C80C8C28C227F
:1003A1008F248E238D228C21538EF7438901D28C89
:1003B100E4FFFEFDFCAB24AA23A922A821C312005D
:1003C100D16025758ACA758CFA308DFDC28DE52400
:1003D10024FFF524E52334FFF523E52234FFF5223C
:0B03E100E52134FFF52180C8C28C220A
:1003EC008F138E128D118C10538EEF438910D28E79
:1003FC00E4FFFEFDFCAB13AA12A911A810C3120056
:10040C00D16025758BEA758DCB308FFDC28FE513CE
:10041C0024FFF513E51234FFF512E51134FFF51145
:0B042C00E51034FFF51080C8C28E22DE
:10026E008F178E168D158C1453C9BF53C9DF43C912
:10027E0010D2CAE4FFFEFDFCAB17AA16A915A814EE
:10028E00C31200D1602575CC3075CDF830CFFDC2CC
:10029E00CFE51724FFF517E51634FFF516E51534EF
:0E02AE00FFF515E51434FFF51480C8C2CA220E
:1002BC008F1B8E1A8D198C1875C40743C408E4FF64
:1002CC00FEFDFCAB1BAA1AA919A818C31200D16019
:1002DC002875C52C75C6CFE5C430E4FB53C4EFE5D7
:1002EC001B24FFF51BE51A34FFF51AE51934FFF54D
:0D02FC0019E51834FFF51880C553C4F7222A
:100309008F1F8E1E8D1D8C1C75C40743C408E4FF06
:10031900FEFDFCAB1FAA1EA91DA81CC31200D160BB
:100329002875C5D875C6FFE5C430E4FB53C4EFE5AD
:100339001F24FFF51FE51E34FFF51EE51D34FFF5EB
:0D0349001DE51C34FFF51C80C553C4F722D0
:0404EA0002250000E7
:100470007F007EC27D017C001201A11204A6D2AED3
:10048000D2EE20900F30910C308009AF26AE2512AD
:1004900004BF80EE3090EB2091033080E5AF26AEB4
:0604A000251204BF80DC00
:1004A60043B30253B4FD43B10153B2FE53B3FE430B
:0904B600B40153B3FE43B401226A
:0B04BF00D283E4FCFD1203A1C28322E3
:030000000200F506
:1000F50075C7AA75C75575FD5A75C7AA75C75575CC
:10010500FDA5787FE4F6D8FD9000007FFF7E03E42F
:0C011500F0A3DFFCDEFA75812602015C1D
:10012100020470E493A3F8E493A34003F68001F280
:1001310008DFF48029E493A3F85407240CC8C333DF
:10014100C4540F4420C8834004F456800146F6DFAE
:10015100E4800B01020408102040809004EAE47E50
:10016100019360BCA3FF543F30E509541FFEE493A3
:10017100A360010ECF54C025E060A840B8E493A36A
:10018100FAE493A3F8E493A3C8C582C8CAC583CA95
:10019100F0A3C8C582C8CAC583CADFE9DEE780BE4D
:0104EE00000D
:1000030075F008758200EF2FFFEE33FECD33CDCCB4
:1000130033CCC58233C5829BED9AEC99E582984037
:100023000CF582EE9BFEED9AFDEC99FC0FD5F0D614
:10003300E4CEFBE4CDFAE4CCF9A88222B800C1B93E
:100043000059BA002DEC8BF084CFCECDFCE5F0CB7C
:10005300F97818EF2FFFEE33FEED33FDEC33FCEBB5
:1000630033FB10D703994004EB99FB0FD8E5E4F970
:10007300FA227818EF2FFFEE33FEED33FDEC33FC5D
:10008300C933C910D7059BE99A4007EC9BFCE99A51
:10009300F90FD8E0E4C9FAE4CCFB2275F010EF2F96
:1000A300FFEE33FEED33FDCC33CCC833C810D70796
:1000B3009BEC9AE899400AED9BFDEC9AFCE899F8D1
:0E00C3000FD5F0DAE4CDFBE4CCFAE4C8F92264
:1000D100EB9FF5F0EA9E42F0E99D42F0E89C45F085
:0100E10022FC
:1000E200E8600FECC313FCED13FDEE13FEEF13FFFC
:0300F200D8F12220
:00000001FF
