:1013930053B1BF53B2BF53B17F53B27F759850431C
:1013A3008920438780438E1053C4DFAB07AA06A965
:1013B30005A8047F407E427D0F7C00120658EF048F
:0913C300F404F58DD28ED29922BA
:100EB4008F558E548D538C5253B1BF53B2BF53B11F
:100EC4007F53B27F75985043878053C4F843C4203E
:100ED400AB55AA54A953A8527F407E427D0F7C0093
:100EE400120658C374FF9FFF74FF9EFEE49DFDE449
:100EF4009CFC78081207098FC6AB55AA54A953A8BD
:100F0400527F407E427D0F7C00120658C374FF9FBF
:090F1400FF8FC543C408D29922E5
:070003003098FDAF99C2988F
:01000A0022D3
:0814DA00C2998F993099FD229F
:100FE9008F598E588D578C5653B1FB53B2FB53B35F
:100FF900BF43B44075F85075C40853C4DFAB59AA50
:1010090058A957A8567F407E427D0F7C001206588A
:10101900C374FF9FFF74FF9EFEE49DFDE49CFC7872
:10102900081207098FC6AB59AA58A957A8567F4075
:101039007E427D0F7C00120658C374FF9FFF8FC547
:0410490043C4082272
:0714E20030F8FDAF9AC2F8DB
:0114E90022E0
:0814EA00C2F98F9A30F9FD22CE
:1011F7008F5D8E5C8D5B8C5A538EF7438901D28C41
:10120700E4FFFEFDFCAB5DAA5CA95BA85AC312060E
:10121700F86025758A7E758CFF308DFDC28DE55D82
:1012270024FFF55DE55C34FFF55CE55B34FFF55BBA
:0B123700E55A34FFF55A80C8C28C2233
:101242008F718E708D6F8C6E538EF7438901D28CA5
:10125200E4FFFEFDFCAB71AA70A96FA86EC3120673
:10126200F86025758ACA758CFA308DFDC28DE571DC
:1012720024FFF571E57034FFF570E56F34FFF56F0B
:0B128200E56E34FFF56E80C8C28C22C0
:10128D008F618E608D5F8C5E538EEF438910D28E91
:10129D00E4FFFEFDFCAB61AA60A95FA85EC3120668
:1012AD00F86025758BEA758DCB308FFDC28FE561AA
:1012BD0024FFF561E56034FFF560E55F34FFF55F10
:0B12CD00E55E34FFF55E80C8C28E2293
:1011A9008F658E648D638C6253C9BF53C9DF43C990
:1011B90010D2CAE4FFFEFDFCAB65AA64A963A8626C
:1011C900C31206F8602575CC3075CDF830CFFDC255
:1011D900CFE56524FFF565E56434FFF564E563341F
:0E11E900FFF563E56234FFF56280C8C2CA22DA
:101109008F698E688D678C6675C40743C408E4FFD0
:10111900FEFDFCAB69AA68A967A866C31206F86058
:101129002B75C52C75C6CFE5C45410641070F853DF
:10113900C4EFE56924FFF569E56834FFF568E567FB
:1011490034FFF567E56634FFF56680C253C4F722BC
:101159008F6D8E6C8D6B8C6A75C40743C408E4FF70
:10116900FEFDFCAB6DAA6CA96BA86AC31206F860F8
:101179002B75C5D875C6FFE5C45410641070F853B3
:10118900C4EFE56D24FFF56DE56C34FFF56CE56B97
:1011990034FFF56BE56A34FFF56A80C253C4F72260
:101492000A20566F6C746167652076616C756520F1
:0514A2003D202564005F
:1013F30002080000040E00000000021A000002149C
:10140300000002170000020A0000020C0000021292
:051413000000011600BD
:100D16001212D8C292C290C281E4F519C3E51994A1
:100D260064748094805026D291D280D2837F0A7ECA
:100D3600007D007C00121242C291C280C2837F0AEB
:100D46007E007D007C00121242051980CF120E4AE9
:100D56001214F27F207E00121419A2AF9209C2AFBC
:100D660075C7AA75C75543F901A20992AFA2AF92FA
:100D760009C2AF75C7AA75C75543F904A20992AF50
:100D8600A2AF9209C2AF75C7AA75C75543F902A2A9
:100D96000992AF7F327E0012000E1214A712147C45
:100DA60012143ED2EE439B08439B20D2AFD2DED232
:030DB600DF80FEDD
:1012D80043AC0153ADFE43B34053B4BF43B32053B3
:1012E800B4DF53B3FB43B40453B3FD43B40253B365
:1012F800FE43B40153B1FE43B20153B1FD43B20200
:1013080053B1F743B20843B31053B4EF53B3F743A1
:03131800B40822F4
:100E4A0043DE0143DE0243DE0443DE0843DE104391
:100E5A00DE2043DF2043DF0253DFFA43DF1043DFA4
:100E6A004053DF7FA2AF920975C7AA75C75575911E
:100E7A000153B7F875C7AA75C755E4F591A2099247
:100E8A00AFA2AF920975C7AA75C75575910143B745
:100E9A003075C7AA75C755F591A20992AFD2DCF58C
:0A0EAA00D175D96475FBFFF5FC2239
:0C000E00AD07AC068CD2EDF5DAD2DE2294
:0714F20043DF0853D7BF22BE
:10141900AD07AF06A2AF9209EF6401700BC2AF75B9
:10142900C7AA75C75543F91075C7AA75C7558DFA67
:04143900A20992AFC3
:01143D00228C
:1014A700538EF7438901758AEA758CCBD2A9D2AFDF
:0314B700D28C22B2
:10147C00538EEF4389105389DF758BCA758DFAD261
:06148C00ABD2AFD28E22AC
:10143E0053C8FE75C9895393FC43930153F1F0438E
:10144E00F10843921043941043C970439B04D2CACF
:01145E00226B
:1013580053E8F043B38053B47FE4F5F643F6014312
:10136800E101C2EFD2EE30EFFDAFC3750A008F0B7B
:10137800E50BC4F8540FC868F50BE50AC454F048E7
:0B138800F50AAFC2EF420B53E1FE225A
:10104D0053E8F043E80543B11053B2EFE4F5F6432E
:10105D00F62043E101C2EFD2EE30EFFD75CE0C75F7
:10106D00CF5D43E2A0AFC37514008F15E515C4F82D
:10107D00540FC868F515E514C454F048F514AFC203
:10108D00EF4215E4F5E285141785151853E1FE7B43
:0E109D00FF7A1479928517258518260207B46C
:10131B0053E8F043E80443B12053B2DFE4F5F6435E
:10132B00F61043E101AFC3F5148F15E515C4F8545E
:10133B000FC868F515E514C454F048F514AFC2EFA7
:0D134B00421585140C85150DC2EFD2EE225F
:100F8400A295E433751200F51325E0F513E5123349
:100F9400F512A296E4334213E51325E0F513E512A6
:100FA40033F512A2B0E4334213E5127037E513149B
:100FB400602014602914602114600B14600F1470F5
:100FC4002375FBFC800375FBF375FC202275FBF392
:100FD400800375FBCF75FC022275FBCF800375FB84
:050FE400FC75FC082271
:100F1D00A295E433751200F51325E0F513E51233B0
:100F2D00F512A296E4334213E51325E0F513E5120D
:100F3D0033F512A2B0E4334213E5127039E51324F0
:100F4D00FE601C14601214602214602414601524B9
:100F5D0005702375FBFC800375FBF375FC20227572
:100F6D00FBF3800375FBCF75FC022275FBCF80036D
:070F7D0075FBFC75FC082266
:03000B000214C814
:0914C800758AEA758CCBC28D32E5
:03001B000214D1FB
:0914D100758BCA758DFAC28F32C9
:03006300020DB9D2
:100DB900C0E0C0F0C083C082C0D075D000C000C000
:100DC90001C002C003C004C005C006C0075392FE9B
:100DD900AFE5EFFEADE47C00E42DFDEC3EFC120234
:100DE900217BBD7A37790678381200768F118E10FB
:100DF9008D0F8C0EE4FFFEFD7C40AB11AA10A90FEC
:100E0900A80E120076A804A905AA06AB07E4FFFEFE
:100E19007D707C4212017F12025A8E088F0975E497
:100E29000075E500C2CFD007D006D005D004D003A5
:100E3900D002D001D000D0D0D082D083D0F0D0E081
:010E49003276
:0300730002006622
:0400660053D77F32BB
:03006B000214BAC2
:0E14BA00C0E0C0D0C2DD120F84D0D0D0E0322E
:1010AB008F418E408D3F8C3EC3E551954DFBE550F6
:1010BB00954CFAE54F954BF9E54E954AF8C3E5414A
:1010CB009545FFE5409544FEE53F9543FDE53E958F
:1010DB0042FC1205CDC3E5499545FBE5489544FA1D
:1010EB00E5479543F9E5469542F812001EEF254D6D
:0E10FB00FFEE354CFEED354BFDEC354AFC2288
:100C6D00A2AF9209C2AF75C7AA75C755439F01A21E
:100C7D000992AF75A604E4F5A775AEFF75AFC0A2D6
:100C8D00AF9209C2AF75C7AA75C75543A401A20992
:100C9D0092AFE5AE54F064F0705B75AE0F75AFE1D9
:100CAD00A2AF9209C2AF75C7AA75C75543A401A2D9
:100CBD000992AFE59F5440644060F8A2AF9209C21B
:100CCD00AF75C7AA75C75553A5FBA20992AFA2AFC1
:100CDD009209C2AF75C7AA75C755539FFEA2099257
:100CED00AFC2AF75C7AA75C755539FFD75C7AA7516
:100CFD00C755439F80A2AF9209C2AF75C7AA75C7EA
:090D0D0055539FFEA20992AF228A
:10145F0075C7AA75C75543AA07A2AF9209C2AF7540
:0D146F00C7AA75C75543AA40A20992AF2233
:03000000020BC12F
:100BC10075C7AA75C75575FD5A75C7AA75C75575F5
:100BD100FDA5787FE4F6D8FD9000007FFF7E03E459
:0C0BE100F0A3DFFCDEFA758171020C2825
:10007600EC4D6011E8497017ED33EC3304600DE484
:10008600FCFFFEFD22E933E8330470F80202C612D3
:10009600029158046009E4CC2481500628500902D4
:1000A60002D02840030202CDC0E0EB4A7044B9807A
:1000B60006D0E0FB0202BCEF4E701CBD8008EBFFD1
:1000C600EAFEE9FD80EBE98DF0A4FEE5F002015FB2
:1000D600E9CDF9EAFEEBFFEF89F0A4FCE5F0CE8965
:1000E600F0A42EFFE435F0CD89F0A42DFEE435F022
:1000F6008067EF4E7005BD80D780C3EF8BF0A4AC50
:10010600F0EE8BF0A42CFCE435F0F8EF8AF0A42C8A
:10011600E5F038FCE433CB8DF0A42CFCE5F03BF89D
:10012600EE8AF0A42CFCE5F038F8E433CF89F0A48D
:100136002CFCE5F038CF3400CE89F0A42FFFE5F093
:100146003EFEE433C98DF0A42EFEE5F039CD8AF0EB
:10015600A42FFFE5F03EFEE43DFD33D0E0FB500763
:100166000BBB000F0202D0EC2CFCEF33FFEE33FE8C
:06017600ED33FD0202A8BA
:10017C000202D0EC5D046005E8590470030202C66B
:10018C00120291580460F6EC4860F2EC7004FDFE2B
:10019C00FF22C860DB2481C85009C3986002500656
:1001AC000202CD9850CAF582E9294B4A7005AB8200
:1001BC000202BC75F0007C1A7880C3EF9BEE9AEDBE
:1001CC0099400DC3EF9BFFEE9AFEED99FDE842F0CE
:1001DC00DC23ACF0D0E0FFD0E0FED0E0FDAB822021
:1001EC00E7101BEB60BAEC2CFCEF33FFEE33FEEDAB
:1001FC0033FD0202A8E803F830E705C0F075F00003
:10020C00EF2FFFEE33FEED33FD40B830E7C280AA8E
:10021C0075F020800E75F010800575F0087D007E5D
:10022C00007F003392D530D5031206EAEC33401030
:10023C00EF33FFEE33FEED33FDEC33FCD5F0ED2266
:0E024C00E5F0247EA2D513CC92E7CDCEFF22A2
:10025A00EDD2E7CD33EC3392D524814006E4FFFE9C
:10026A00FDFC22FCE4CFCECDCC24E0501174FF80FB
:10027A00EDC3CC13CCCD13CDCE13CECF13CF047098
:07028A00F030D5DE0206EAA8
:10075200E5392425F8E60539227822300702782582
:10076200E475F00112071C0205752000EB7F2ED202
:10077200008018EF540F2490D43440D4FF30040B7F
:10078200EF24BFB41A0050032461FFE53A6002155A
:100792003A053DE53D7002053C30070D7822E475CF
:1007A200F00112071CEF0205BB0213CC7403D2073F
:1007B2008003E4C207F5398B228A238924E4F53ABF
:1007C200F53CF53DE53A60077F2012078D80F5750F
:1007D2003BFFC201C200C202C203C205C206C20876
:1007E20012075BFF700D3007057F0012079EAF3DB9
:1007F200AE3C22B4255FC2D5C20412075BFF24D0EF
:10080200B40A00501A75F00A783A30D50508B6FFD6
:100812000106C6A426F620D5047002D20380D9248C
:10082200CFB41A00EF5004C2E5D204020A8BD201FF
:1008320080C6D20080C0D20280BCD2D580BAD20596
:1008420080B47F2012078D2002077401B53A004060
:10085200F1120752FF12078D0207C6D208D2068094
:1008620095120752FB120752FA120752F94A4B70BD
:100872000679827A0B7BFF20022EE53A602A7E00FF
:100882008E8275830012058E60060EEE653B70F057
:10089200C2D5EBC0E0EAC0E0E9C0E0EE120AEBD05C
:1008A200E0F9D0E0FAD0E0FB120575FF60AAEBC0D8
:1008B200E0EAC0E0E9C0E012078DD0E02401F9D0FF
:1008C200E03400FAD0E0FBE53B0460DCD53BD980A4
:1008D20087D20280A2120ACE60F7E53B70010412B1
:1008E20002DBA93B600DE53B600914F53B120B7579
:1008F200EF60F3EA30E702F404C3995077EAF42593
:100902003B0430E701E404F53B800D120ACE60C1DE
:10091200EA053B253B1202DBEA7838F630E701E4D0
:10092200253B04D53B0420050114120AEBE4C0E088
:10093200120B757838E6601320E70714F612077574
:10094200802204F6D0E014C0E07F00120775E53B78
:10095200600712076C153B800B30050312076CD041
:10096200E00207C6D0E00480C5120ACE60A0E53BD3
:10097200041202DB7838EAF6E53B20050260010446
:050982002404120AEB41
:1009870074FF04C0E0120B75120775E53B200502E2
:10099700600312076CD0E0B53BE87F4512077F780C
:1009A70038E67F2B30E7047F2DF404C0E012078D73
:1009B700D0E075F00A84C0F0120776D0E01207760F
:1009C7000207C6791080027908C206C2088008D2D9
:1009D700D5790A8004790AC2D5E53B047002F53B54
:1009E700E4FAFDFEFF120752FC7B082001131207F1
:1009F70052FD7B1030000A120752FE120752FF7B8E
:100A070020EC3382D592D55013C3E43000069FFF04
:100A1700E49EFEE42001039DFDE49CFCE4CBF8C2C8
:100A270001EC700CCFCECDCCE824F8F870F380172A
:100A3700C3EF33FFEE33FEED33FDEC33FCEB33FB5B
:100A4700994002FB0FD8E9EB300105F8D0E0C44824
:100A5700B201C0E00AEC4D4E4F78207B0070C2EA2D
:100A6700B53B0040BCC0E0120AEDD0F0D0E0200159
:100A770004C4C0E0C4B201C0F0120776D0F0D5F0CC
:100A8700EB0207C612072C08635309CA5808344CEF
:100A970008304209CE4F09D64409D64908494309C7
:100AA700DC55090D46096B4508D7470BA250083896
:100AB7002D083C2E085F2B084023085D200B8B2A4E
:100AC70007F84800000857E53BB4FF03753B0612DB
:100AD7000752FC120752FD120752FE120752FF7807
:100AE7003102030A790AA2D5200314300509B91087
:100AF700020404B9080104A2D5200602500104200B
:100B070002689202B53A005034C0E07F20300319E2
:100B17007F30A20272067205500F120B44C202C246
:100B270006C205C2087F30800F300503E9C0E01216
:100B3700078D300503D0E0F9D0E0B53ACC30051782
:100B47007F30B9100C12078D7F583004077F7880EB
:100B570003B9080312078D3002057F2D02078D7F29
:100B6700202008F87F2B2006F322920280CF7F00F7
:100B7700B4070050052431F8E6FF22286E756C6C27
:100B87002900D2011207523001F8C201783A30D554
:100B97000108F60207F82D5043495812075224035B
:100BA700B405004001E4900B9D9312077E743A123E
:0A0BB700077ED203753A040209CA52
:10029100E9D2E7C933E833F892D5EDD2E7CD33ECB3
:0702A10033FC5002B2D5222C
:1002A800EC30E7100FBF000C0EBE00080DBD0004B7
:1002B8000BEB6014A2D5EB13FCED92E7FD2274FF63
:1002C800FCFDFEFF22E480F8A2D574FF13FC7D80BC
:0302D800E480EFD0
:1002DB00F920E72824F950037907E4F42402FB18EA
:1002EB00DBFDE624FB5014E9600DE4F618E604F69A
:0F02FB00B40A08E4F6D9F57401F60A22C2D52236
:10030A00ED33EC3392D5FA602AB4FF33EDC2E77BC2
:10031A00FF60067A03792FE4227A03793820D5041C
:10032A007A037933224E614E002B494E46002D49FD
:10033A004E4600E47A08F608DAFC7B00740722E8E5
:10034A00C0E0ECC0E0EDC0E0EEC0E0EFC0E0EA756E
:10035A00F010A4CAABF075F04DA42BFBE435F0FC09
:10036A00EA2410FAEB34C5FBEC34D9FCEDC2E7FF02
:10037A0075F056A4F42411C5F0F434C58FF0A42AFC
:10038A00E5F03BE43CF620E714120535D0E0FFD057
:10039A00E0FED0E0FDD0E0FC12017F8014F40412EC
:1003AA000535D0E0FFD0E0FED0E0FDD0E0FC120041
:1003BA0076D0E0F8E6FAEDD2E7CD33EC332482FBCF
:1003CA00E4C3CF33CFCE33CECD33CD33DBF37B078C
:1003DA0075F00A846004F6081B0AE5F0F6088FF047
:1003EA00740AA4FFACF08EF0740AA42CFEACF05090
:1003FA00010C8DF0740AA42CFDE435F0F608DBDE5E
:03040A0074072252
:10040D000202C6E86480F8E933E83360110460F055
:10041D00ED33EC337009E8FCE9FDEAFEEBFF220455
:10042D0060DED3EB9FEA9EE99DE8C2E78CF0C2F750
:10043D0095F0400CE8CCF8E9CDF9EACEFAEBCFFB1C
:10044D0012029185D0F05804700320D5B3E80470E2
:10045D00075002B2D50202D092D5EC0460F7E4CC7D
:10046D00C0E0C398F8603B94186008400DD0E0FBE5
:10047D000202A8E4FBFAC9FC8028E830E406E4C9CE
:10048D00FBE4CAFCE830E305E4C9CACBFCE8540739
:10049D006010F8C3E913F9EA13FAEB13FBEC13FC44
:1004AD00D8F130F52FC3E49CFCEF9BFFEE9AFEEDE7
:1004BD0099FDD0E0FBEF4E4D4C701222DB03020292
:1004CD00CDEC2CFCEF33FFEE33FEED33FDED30E7DD
:1004DD00EB0202A8EF2BFFEE3AFEED39FDD0E0FB6B
:1004ED0050130BBB00030202D0ED13FDEE13FEEF14
:0804FD0013FFEC13FC0202A83E
:100505003F8000004120000042C80000447A0000FE
:10051500461C400047C35000497424004B18968080
:100525004CBEBC205A0E1BCA6753C21C749DC5AE77
:10053500FB60065407601C2323120563EB543860E7
:100545000912054F12055E120076ECF8EDF9EEFA88
:10055500EFCB22EB12055E80F1543803241C900585
:1005650005FE93FC0EEE93FD0EEE930ECE93FF2249
:100BED00020D16E493A3F8E493A34003F68001F2FB
:100BFD0008DFF48029E493A3F85407240CC8C33309
:100C0D00C4540F4420C8834004F456800146F6DFD7
:100C1D00E4800B01020408102040809013F3E47E61
:100C2D00019360BCA3FF543F30E509541FFEE493CC
:100C3D00A360010ECF54C025E060A840B8E493A393
:100C4D00FAE493A3F8E493A3C8C582C8CAC583CABE
:100C5D00F0A3C8C582C8CAC583CADFE9DEE780BE76
:0114180000D3
:10057500BB010689828A83E0225002E722BBFE0284
:09058500E32289828A83E49322B7
:10058E00BB010CE58229F582E5833AF583E0225022
:10059E0006E92582F8E622BBFE06E92582F8E2226C
:0D05AE00E58229F582E5833AF583E4932286
:1005BB00BB010689828A83F0225002F722BBFE011F
:0205CB00F32219
:1005CD00E88FF0A4CC8BF0A42CFCE98EF0A42CFCCD
:1005DD008AF0EDA42CFCEA8EF0A4CDA8F08BF0A44B
:1005ED002DCC3825F0FDE98FF0A42CCD35F0FCEBAA
:1005FD008EF0A4FEA9F0EB8FF0A4CFC5F02ECD396F
:0F060D00FEE43CFCEAA42DCE35F0FDE43CFC22DB
:10061C0075F008758200EF2FFFEE33FECD33CDCC95
:10062C0033CCC58233C5829BED9AEC99E582984018
:10063C000CF582EE9BFEED9AFDEC99FC0FD5F0D6F5
:10064C00E4CEFBE4CDFAE4CCF9A88222B800C1B91F
:10065C000059BA002DEC8BF084CFCECDFCE5F0CB5D
:10066C00F97818EF2FFFEE33FEED33FDEC33FCEB96
:10067C0033FB10D703994004EB99FB0FD8E5E4F951
:10068C00FA227818EF2FFFEE33FEED33FDEC33FC3E
:10069C00C933C910D7059BE99A4007EC9BFCE99A32
:1006AC00F90FD8E0E4C9FAE4CCFB2275F010EF2F77
:1006BC00FFEE33FEED33FDCC33CCC833C810D70777
:1006CC009BEC9AE899400AED9BFDEC9AFCE899F8B2
:0E06DC000FD5F0DAE4CDFBE4CCFAE4C8F92245
:10001E00C2D5E830E70FB2D5E4C39BFBE49AFAE40D
:10002E0099F9E498F8EC30E717B2D512005412069D
:10003E0058E4C39BFBE49AFAE499F9E498F8800338
:10004E0012065830D50DE4C39FFFE49EFEE49DFDDD
:04005E00E49CFC2200
:0E06EA00C3E49FFFE49EFEE49DFDE49CFC2221
:1006F800EB9FF5F0EA9E42F0E99D42F0E89C45F058
:0107080022CE
:10070900E8600FECC313FCED13FDEE13FEEF13FFCE
:03071900D8F122F2
:10071C00FAE6FB0808E6F925F0F618E6CA3AF622DE
:10072C00D083D082F8E4937012740193700DA3A35C
:10073C0093F8740193F5828883E473740293686070
:06074C00EFA3A3A380DF70
:1013CC00EFB40A07740D1213D7740A309811A89948
:1013DC00B8130CC2983098FDA899C298B811F63081
:0713EC0099FDC299F5992259
:00000001FF
