:100C480053B1BF53B2BF53B17F53B27F759850436E
:100C58008920438780438E1053C4DFAB07AA06A9B7
:100C680005A8047F407E427D0F7C00120366EF04D6
:090C7800F404F58DD28ED299220C
:100777008F248E238D228C2153B1BF53B2BF53B127
:100787007F53B27F75985043878053C4F843C42082
:10079700AB24AA23A922A8217F407E427D0F7C009B
:1007A700120366C374FF9FFF74FF9EFEE49DFDE482
:1007B7009CFC78081204178FC6AB24AA23A922A889
:1007C700217F407E427D0F7C00120366C374FF9F2A
:0907D700FF8FC543C408D299222A
:070003003098FDAF99C2988F
:01000A0022D3
:080D7E00C2998F993099FD2202
:1008AC008F388E378D368C3553B1FB53B2FB53B327
:1008BC00BF43B44075F85075C40853C4DFAB38AAB5
:1008CC0037A936A8357F407E427D0F7C0012036627
:1008DC00C374FF9FFF74FF9EFEE49DFDE49CFC78B7
:1008EC00081204178FC6AB38AA37A936A8357F4033
:1008FC007E427D0F7C00120366C374FF9FFF8FC581
:04090C0043C40822B6
:070D860030F8FDAF9AC2F83E
:010D8D002243
:080D8E00C2F98F9A30F9FD2231
:100AAC008F3C8E3B8D3A8C39538EF7438901D28C17
:100ABC00E4FFFEFDFCAB3CAA3BA93AA839C31204E7
:100ACC00066025758A7E758CFF308DFDC28DE53CE8
:100ADC0024FFF53CE53B34FFF53BE53A34FFF53AB2
:0B0AEC00E53934FFF53980C8C28C22C8
:100AF7008F248E238D228C21538EF7438901D28C2C
:100B0700E4FFFEFDFCAB24AA23A922A821C31204FB
:100B1700066025758ACA758CFA308DFDC28DE5246D
:100B270024FFF524E52334FFF523E52234FFF522DE
:0B0B3700E52134FFF52180C8C28C22AC
:100B42008F408E3F8D3E8C3D538EEF438910D28E67
:100B5200E4FFFEFDFCAB40AA3FA93EA83DC3120440
:100B6200066025758BEA758DCB308FFDC28FE5400F
:100B720024FFF540E53F34FFF53FE53E34FFF53E07
:0B0B8200E53D34FFF53D80C8C28E2227
:100A5E008F448E438D428C4153C9BF53C9DF43C966
:100A6E0010D2CAE4FFFEFDFCAB44AA43A942A84142
:100A7E00C3120406602575CC3075CDF830CFFDC29B
:100A8E00CFE54424FFF544E54334FFF543E5423416
:0E0A9E00FFF542E54134FFF54180C8C2CA228F
:10096E008F488E478D468C4575C40743C408E4FFF7
:10097E00FEFDFCAB48AA47A946A845C31204066073
:10098E002B75C52C75C6CFE5C45410641070F85382
:10099E00C4EFE54824FFF548E54734FFF547E54643
:1009AE0034FFF546E54534FFF54580C253C4F722C2
:1009BE008F4C8E4B8D4A8C4975C40743C408E4FF97
:1009CE00FEFDFCAB4CAA4BA94AA849C31204066013
:1009DE002B75C5D875C6FFE5C45410641070F85356
:1009EE00C4EFE54C24FFF54CE54B34FFF54BE54ADF
:1009FE0034FFF54AE54934FFF54980C253C4F72266
:100CAC0002080000040E00000000021A00000214EA
:100CBC00000002170000020A0000020C00000212E1
:050CCC0000000116000C
:10042A007F007EC27D017C00120777120B8DC2927B
:10043A00C290C281E4F519C3E5199464748094806A
:10044A005026D291D280D2837F0A7E007D007C0022
:10045A00120AF7C291C280C2837F0A7E007D007CA5
:10046A0000120AF7051980CF12070D120D967F2088
:10047A007E00120CD2A2AF9200C2AF75C7AA75C78E
:10048A005543F901A20092AFA2AF9200C2AF75C75D
:10049A00AA75C75543F904A20092AFA2AF9200C24F
:1004AA00AF75C7AA75C75543F902A20092AF120DDC
:1004BA004B120D35120CF7D2AED2EE439B08439B7A
:1004CA0020D2AFD2DE120C0DAE0AAF0BE4FCFDF562
:1004DA0028F527F526F525752CFF752B0FF52AF536
:1004EA0029F530F52FF52EF52D75345FF533F532F4
:1004FA00F5311209108E1C8F1DD3E51D940AE51CD7
:10050A0094004009D2DF12000ED2DF80B8E4F51C55
:0D051A00F51DAF1DAE1C12000EC2DF80A843
:100B8D0043AC0153ADFE43B34053B4BF43B3205305
:100B9D00B4DF53B3FB43B40453B3FD43B40253B3B7
:100BAD00FE43B40153B1FE43B20153B1FD43B20252
:100BBD0053B1F743B20843B31053B4EF53B3F743F4
:030BCD00B4082247
:10070D0043DE0143DE0243DE0443DE0843DE1043D5
:10071D00DE2043DF2043DF0253DFFA43DF1043DFE8
:10072D004053DF7FA2AF920075C7AA75C75575916B
:10073D000153B7F875C7AA75C755E4F591A2009294
:10074D00AFA2AF920075C7AA75C75575910143B792
:10075D003075C7AA75C755F591A20092AFD2DCF5D9
:0A076D00D175D96475FBFFF5FC227D
:0C000E00AD07AC068CD2EDF5DAD2DE2294
:070D960043DF0853D7BF2221
:100CD200AD07AF06A2AF9200EF6401700BC2AF7511
:100CE200C7AA75C75543F91075C7AA75C7558DFAB6
:040CF200A20092AF1B
:010CF60022DB
:100D4B00538EF7438901758AEA758CCBD2A9D2AF42
:030D5B00D28C2215
:100D3500538EEF4389105389DF758BCA758DFAD2AF
:060D4500ABD2AFD28E22FA
:100CF70053C8FE75C9895393FC43930153F1F043DD
:100D0700F10843921043941043C970439B04D2CA1D
:010D170022B9
:100C8100E4FFFE43E13043E20E43A210C2EFD2EE95
:100C910030EFFDAFC37E00EFC4F8540FC868FFEE1C
:0A0CA100C454F048FEADC2ED420756
:010CAB002226
:100C0D0053E8F043B38053B47FE4F5F643F6014364
:100C1D00E101C2EFD2EE30EFFDAFC3750A008F0BCD
:100C2D00E50BC4F8540FC868F50BE50AC454F04839
:0B0C3D00F50AAFC2EF420B53E1FE22AC
:100A0E0053E8F043E80443B12053B2DFE4F5F64374
:100A1E00F61043E101C2EFD2EE30EFFD75CE0C754C
:100A2E00CF5D43E2A0AFC37514008F15E515C4F872
:100A3E00540FC868F515E514C454F048F514AFC248
:100A4E00EF4215E4F5E285141785151853E1FE22E1
:100BD00053E8F043E80543B11053B2EFE4F5F643B0
:100BE000F62043E101AFC3F5148F15E515C4F854A1
:100BF0000FC868F515E514C454F048F514AFC2EFFA
:0D0C0000421585140C85150DC2EFD2EE22B1
:10084700A295E433751200F51325E0F513E512338D
:10085700F512A296E4334213E51325E0F513E512EA
:1008670033F512A2B0E4334213E5127037E51314DF
:10087700602014602914602114600B14600F147039
:100887002375FBFC800375FBF375FC202275FBF3D6
:10089700800375FBCF75FC022275FBCF800375FBC8
:0508A700FC75FC0822B5
:1007E000A295E433751200F51325E0F513E51233F5
:1007F000F512A296E4334213E51325E0F513E51252
:1008000033F512A2B0E4334213E5127039E5132434
:10081000FE601C14601214602214602414601524FD
:1008200005702375FBFC800375FBF375FC202275B6
:10083000FBF3800375FBCF75FC022275FBCF8003B1
:0708400075FBFC75FC0822AA
:03000B00020D6C77
:090D6C00758AEA758CCBC28D3248
:03001B00020D755E
:090D7500758BCA758DFAC28F322C
:0300630002067C16
:10067C00C0E0C0F0C083C082C0D075D000C000C044
:10068C0001C002C003C004C005C006C0075392FEDF
:10069C00AFE5EFFEADE47C00E42DFDEC3EFC120278
:1006AC00217BBD7A37790678381200768F118E103F
:1006BC008D0F8C0EE4FFFEFD7C40AB11AA10A90F30
:1006CC00A80E120076A804A905AA06AB07E4FFFE43
:1006DC007D707C4212017F12025A8E088F0975E4DC
:1006EC000075E500C2CFD007D006D005D004D003EA
:1006FC00D002D001D000D0D0D082D083D0F0D0E0C6
:01070C0032BA
:0300730002006622
:0400660053D77F32BB
:03006B00020D5E25
:0E0D5E00C0E0C0D0C2DD120847D0D0D0E032D5
:100910008F248E238D228C21C3E5349530FBE53363
:10092000952FFAE532952EF9E531952DF8C3E5249A
:100930009528FFE5239527FEE5229526FDE52195DF
:1009400025FC1202DBC3E52C9528FBE52B9527FA45
:10095000E52A9526F9E5299525F812001EEF2530A0
:0E096000FFEE352FFEED352EFDEC352DFC2281
:1005D300A2AF9200C2AF75C7AA75C755439F01A2C8
:1005E3000092AF75A604E4F5A775AEFF75AFC0A280
:1005F300AF9200C2AF75C7AA75C75543A401A20045
:1006030092AFE5AE54F064F0705B75AE0F75AFE179
:10061300A2AF9200C2AF75C7AA75C75543A401A282
:100623000092AFE59F5440644060F8A2AF9200C2CD
:10063300AF75C7AA75C75553A5FBA20092AFA2AF6A
:100643009200C2AF75C7AA75C755539FFEA2009209
:10065300AFC2AF75C7AA75C755539FFD75C7AA75B6
:10066300C755439F80A2AF9200C2AF75C7AA75C793
:0906730055539FFEA20092AF2234
:100D180075C7AA75C75543AA07A2AF9200C2AF7597
:0D0D2800C7AA75C75543AA40A20092AF228A
:03000000020527CF
:1005270075C7AA75C75575FD5A75C7AA75C7557595
:10053700FDA5787FE4F6D8FD9000007FFF7E03E4F9
:0C054700F0A3DFFCDEFA75814C02058E8B
:10007600EC4D6011E8497017ED33EC3304600DE484
:10008600FCFFFEFD22E933E8330470F80202C612D3
:10009600029158046009E4CC2481500628500902D4
:1000A60002D02840030202CDC0E0EB4A7044B9807A
:1000B60006D0E0FB0202BCEF4E701CBD8008EBFFD1
:1000C600EAFEE9FD80EBE98DF0A4FEE5F002015FB2
:1000D600E9CDF9EAFEEBFFEF89F0A4FCE5F0CE8965
:1000E600F0A42EFFE435F0CD89F0A42DFEE435F022
:1000F6008067EF4E7005BD80D780C3EF8BF0A4AC50
:10010600F0EE8BF0A42CFCE435F0F8EF8AF0A42C8A
:10011600E5F038FCE433CB8DF0A42CFCE5F03BF89D
:10012600EE8AF0A42CFCE5F038F8E433CF89F0A48D
:100136002CFCE5F038CF3400CE89F0A42FFFE5F093
:100146003EFEE433C98DF0A42EFEE5F039CD8AF0EB
:10015600A42FFFE5F03EFEE43DFD33D0E0FB500763
:100166000BBB000F0202D0EC2CFCEF33FFEE33FE8C
:06017600ED33FD0202A8BA
:10017C000202D0EC5D046005E8590470030202C66B
:10018C00120291580460F6EC4860F2EC7004FDFE2B
:10019C00FF22C860DB2481C85009C3986002500656
:1001AC000202CD9850CAF582E9294B4A7005AB8200
:1001BC000202BC75F0007C1A7880C3EF9BEE9AEDBE
:1001CC0099400DC3EF9BFFEE9AFEED99FDE842F0CE
:1001DC00DC23ACF0D0E0FFD0E0FED0E0FDAB822021
:1001EC00E7101BEB60BAEC2CFCEF33FFEE33FEEDAB
:1001FC0033FD0202A8E803F830E705C0F075F00003
:10020C00EF2FFFEE33FEED33FD40B830E7C280AA8E
:10021C0075F020800E75F010800575F0087D007E5D
:10022C00007F003392D530D5031203F8EC33401025
:10023C00EF33FFEE33FEED33FDEC33FCD5F0ED2266
:0E024C00E5F0247EA2D513CC92E7CDCEFF22A2
:10025A00EDD2E7CD33EC3392D524814006E4FFFE9C
:10026A00FDFC22FCE4CFCECDCC24E0501174FF80FB
:10027A00EDC3CC13CCCD13CDCE13CECF13CF047098
:07028A00F030D5DE0203F89D
:10029100E9D2E7C933E833F892D5EDD2E7CD33ECB3
:0702A10033FC5002B2D5222C
:1002A800EC30E7100FBF000C0EBE00080DBD0004B7
:1002B8000BEB6014A2D5EB13FCED92E7FD2274FF63
:1002C800FCFDFEFF22E480F8A2D574FF13FC7D80BC
:0302D800E480EFD0
:1005530002042AE493A3F8E493A34003F68001F290
:1005630008DFF48029E493A3F85407240CC8C333A9
:10057300C4540F4420C8834004F456800146F6DF78
:10058300E4800B0102040810204080900CACE47E50
:10059300019360BCA3FF543F30E509541FFEE4936D
:1005A300A360010ECF54C025E060A840B8E493A334
:1005B300FAE493A3F8E493A3C8C582C8CAC583CA5F
:1005C300F0A3C8C582C8CAC583CADFE9DEE780BE17
:010CD1000022
:1002DB00E88FF0A4CC8BF0A42CFCE98EF0A42CFCC2
:1002EB008AF0EDA42CFCEA8EF0A4CDA8F08BF0A440
:1002FB002DCC3825F0FDE98FF0A42CCD35F0FCEB9F
:10030B008EF0A4FEA9F0EB8FF0A4CFC5F02ECD3963
:0F031B00FEE43CFCEAA42DCE35F0FDE43CFC22D0
:10032A0075F008758200EF2FFFEE33FECD33CDCC8A
:10033A0033CCC58233C5829BED9AEC99E58298400D
:10034A000CF582EE9BFEED9AFDEC99FC0FD5F0D6EA
:10035A00E4CEFBE4CDFAE4CCF9A88222B800C1B914
:10036A000059BA002DEC8BF084CFCECDFCE5F0CB52
:10037A00F97818EF2FFFEE33FEED33FDEC33FCEB8B
:10038A0033FB10D703994004EB99FB0FD8E5E4F946
:10039A00FA227818EF2FFFEE33FEED33FDEC33FC33
:1003AA00C933C910D7059BE99A4007EC9BFCE99A27
:1003BA00F90FD8E0E4C9FAE4CCFB2275F010EF2F6C
:1003CA00FFEE33FEED33FDCC33CCC833C810D7076C
:1003DA009BEC9AE899400AED9BFDEC9AFCE899F8A7
:0E03EA000FD5F0DAE4CDFBE4CCFAE4C8F9223A
:10001E00C2D5E830E70FB2D5E4C39BFBE49AFAE40D
:10002E0099F9E498F8EC30E717B2D51200541203A0
:10003E0066E4C39BFBE49AFAE499F9E498F880032A
:10004E0012036630D50DE4C39FFFE49EFEE49DFDD2
:04005E00E49CFC2200
:0E03F800C3E49FFFE49EFEE49DFDE49CFC2216
:10040600EB9FF5F0EA9E42F0E99D42F0E89C45F04C
:0104160022C3
:10041700E8600FECC313FCED13FDEE13FEEF13FFC3
:03042700D8F122E7
:00000001FF
