:100C390053B1BF53B2BF53B17F53B27F759850437D
:100C49008920438780438E1053C4DFAB07AA06A9C6
:100C590005A8047F407E427D0F7C00120366EF04E5
:090C6900F404F58DD28ED299221B
:10076E008F248E238D228C2153B1BF53B2BF53B130
:10077E007F53B27F75985043878053C4F843C4208B
:10078E00AB24AA23A922A8217F407E427D0F7C00A4
:10079E00120366C374FF9FFF74FF9EFEE49DFDE48B
:1007AE009CFC78081204178FC6AB24AA23A922A892
:1007BE00217F407E427D0F7C00120366C374FF9F33
:0907CE00FF8FC543C408D2992233
:070003003098FDAF99C2988F
:01000A0022D3
:080D6D00C2998F993099FD2213
:1008A3008F388E378D368C3553B1FB53B2FB53B330
:1008B300BF43B44075F85075C40853C4DFAB38AABE
:1008C30037A936A8357F407E427D0F7C0012036630
:1008D300C374FF9FFF74FF9EFEE49DFDE49CFC78C0
:1008E300081204178FC6AB38AA37A936A8357F403C
:1008F3007E427D0F7C00120366C374FF9FFF8FC58A
:0409030043C40822BF
:070D750030F8FDAF9AC2F84F
:010D7C002254
:080D7D00C2F98F9A30F9FD2242
:100A9D008F3C8E3B8D3A8C39538EF7438901D28C26
:100AAD00E4FFFEFDFCAB3CAA3BA93AA839C31204F6
:100ABD00066025758A7E758CFF308DFDC28DE53CF7
:100ACD0024FFF53CE53B34FFF53BE53A34FFF53AC1
:0B0ADD00E53934FFF53980C8C28C22D7
:100AE8008F248E238D228C21538EF7438901D28C3B
:100AF800E4FFFEFDFCAB24AA23A922A821C312040B
:100B0800066025758ACA758CFA308DFDC28DE5247C
:100B180024FFF524E52334FFF523E52234FFF522ED
:0B0B2800E52134FFF52180C8C28C22BB
:100B33008F408E3F8D3E8C3D538EEF438910D28E76
:100B4300E4FFFEFDFCAB40AA3FA93EA83DC312044F
:100B5300066025758BEA758DCB308FFDC28FE5401E
:100B630024FFF540E53F34FFF53FE53E34FFF53E16
:0B0B7300E53D34FFF53D80C8C28E2236
:1009B5008F448E438D428C4153C9BF53C9DF43C910
:1009C50010D2CAE4FFFEFDFCAB44AA43A942A841EC
:1009D500C3120406602575CC3075CDF830CFFDC245
:1009E500CFE54424FFF544E54334FFF543E54234C0
:0E09F500FFF542E54134FFF54180C8C2CA2239
:100A03008F488E478D468C4575C40743C408E4FF61
:100A1300FEFDFCAB48AA47A946A845C312040660DD
:100A23002875C52C75C6CFE5C430E4FB53C4EFE588
:100A33004824FFF548E54734FFF547E54634FFF51D
:0D0A430046E54534FFF54580C553C4F72254
:100A50008F4C8E4B8D4A8C4975C40743C408E4FF04
:100A6000FEFDFCAB4CAA4BA94AA849C31204066080
:100A70002875C5D875C6FFE5C430E4FB53C4EFE55F
:100A80004C24FFF54CE54B34FFF54BE54A34FFF5BC
:0D0A90004AE54934FFF54980C553C4F722FB
:100C9D0002080000040E00000000021A00000214F9
:100CAD00000002170000020A0000020C00000212F0
:050CBD0000000116001B
:10042A007F007EC27D017C0012076E120B7EC29293
:10043A00C290C281E4F519D291D280D2837F0A7E1A
:10044A00007D007C00120AE8C291C280C2837F0A42
:10045A007E007D007C00120AE80519E519C3946440
:10046A0040D5120704120D857F207E00120CC3A20C
:10047A00AF9200C2AF75C7AA75C75543F901A2006A
:10048A0092AFA2AF9200C2AF75C7AA75C75543F91A
:10049A0004A20092AFA2AF9200C2AF75C7AA75C7F5
:1004AA005543F902A20092AF120D3A120D24120C12
:1004BA00E6D2AED2EE439B08439B20D2AFD2DE12E5
:1004CA000BFEAE0AAF0BE4FCFDF528F527F526F581
:1004DA0025752CFF752B0FF52AF529F530F52FF523
:1004EA002EF52D75345FF533F532F5311209078E85
:1004FA001C8F1DD3E51D940AE51C94004009D2DF28
:10050A0012000ED2DF80B8E4F51CF51DAF1DAE1C3B
:07051A0012000EC2DF80A8F1
:100B7E0043AC0153ADFE43B34053B4BF43B3205314
:100B8E00B4DF53B3FB43B40453B3FD43B40253B3C6
:100B9E00FE43B40153B1FE43B20153B1FD43B20261
:100BAE0053B1F743B20843B31053B4EF53B3F74303
:030BBE00B4082256
:1007040043DE0143DE0243DE0443DE0843DE1043DE
:10071400DE2043DF2043DF0253DFFA43DF1043DFF1
:100724004053DF7FA2AF920075C7AA75C755759174
:100734000153B7F875C7AA75C755E4F591A200929D
:10074400AFA2AF920075C7AA75C75575910143B79B
:100754003075C7AA75C755F591A20092AFD2DCF5E2
:0A076400D175D96475FBFFF5FC2286
:0C000E00AD07AC068CD2EDF5DAD2DE2294
:070D850043DF0853D7BF2232
:100CC300AD07AF06A2AF9200BF010BC2AF75C7AAB3
:100CD30075C75543F91075C7AA75C7558DFAA20094
:020CE30092AFCE
:010CE50022EC
:100D3A00538EF7438901758AEA758CCBD2A9D2AF53
:030D4A00D28C2226
:100D2400538EEF4389105389DF758BCA758DFAD2C0
:060D3400ABD2AFD28E220B
:100CE60053C8FE75C9895393FC43930153F1F043EE
:100CF600F10843921043941043C970439B04D2CA2F
:010D060022CA
:100C7200E4FFFE43E13043E20E43A210C2EFD2EEA4
:100C820030EFFDAFC37E00EFC4F8540FC868FFEE2B
:0A0C9200C454F048FEADC2ED420765
:010C9C002235
:100BFE0053E8F043B38053B47FE4F5F643F6014374
:100C0E00E101C2EFD2EE30EFFDAFC3750A008F0BDC
:100C1E00E50BC4F8540FC868F50BE50AC454F04848
:0B0C2E00F50AAFC2EF420B53E1FE22BB
:1009650053E8F043E80443B12053B2DFE4F5F6431E
:10097500F61043E101C2EFD2EE30EFFD75CE0C75F6
:10098500CF5D43E2A0AFC37514008F15E515C4F81C
:10099500540FC868F515E514C454F048F514AFC2F2
:1009A500EF4215E4F5E285141785151853E1FE228B
:100BC10053E8F043E80543B11053B2EFE4F5F643BF
:100BD100F62043E101AFC3F5148F15E515C4F854B0
:100BE1000FC868F515E514C454F048F514AFC2EF09
:0D0BF100421585140C85150DC2EFD2EE22C1
:10083E00A295E433751200F51325E0F513E5123396
:10084E00F512A296E4334213E51325E0F513E512F3
:10085E0033F512A2B0E4334213E5127037E51314E8
:10086E00602014602914602114600B14600F147042
:10087E002375FBFC800375FBF375FC202275FBF3DF
:10088E00800375FBCF75FC022275FBCF800375FBD1
:05089E00FC75FC0822BE
:1007D700A295E433751200F51325E0F513E51233FE
:1007E700F512A296E4334213E51325E0F513E5125B
:1007F70033F512A2B0E4334213E5127039E513243E
:10080700FE601C1460121460221460241460152406
:1008170005702375FBFC800375FBF375FC202275BF
:10082700FBF3800375FBCF75FC022275FBCF8003BA
:0708370075FBFC75FC0822B3
:03000B00020D5B88
:090D5B00758AEA758CCBC28D3259
:03001B00020D646F
:090D6400758BCA758DFAC28F323D
:030063000206731F
:10067300C0E0C0F0C083C082C0D075D000C000C04D
:1006830001C002C003C004C005C006C0075392FEE8
:10069300AFE5EFFEADE47C00E42DFDEC3EFC120281
:1006A300217BBD7A37790678381200768F118E1048
:1006B3008D0F8C0EE4FFFEFD7C40AB11AA10A90F39
:1006C300A80E120076A804A905AA06AB07E4FFFE4C
:1006D3007D707C4212017F12025A8E088F0975E4E5
:1006E3000075E500C2CFD007D006D005D004D003F3
:1006F300D002D001D000D0D0D082D083D0F0D0E0CF
:0107030032C3
:0300730002006622
:0400660053D77F32BB
:03006B00020D4D36
:0E0D4D00C0E0C0D0C2DD12083ED0D0D0E032EF
:100907008F248E238D228C21C3E5349530FBE5336C
:10091700952FFAE532952EF9E531952DF8C3E524A3
:100927009528FFE5239527FEE5229526FDE52195E8
:1009370025FC1202DBC3E52C9528FBE52B9527FA4E
:10094700E52A9526F9E5299525F812001EEF2530A9
:0E095700FFEE352FFEED352EFDEC352DFC228A
:1005CD00A2AF9200C2AF75C7AA75C755439F01A2CE
:1005DD000092AF75A604E4F5A775AEFF75AFC0A286
:1005ED00AF9200C2AF75C7AA75C75543A401A2004B
:1005FD0092AFE5AE54F064F0705875AE0F75AFE183
:10060D00A2AF9200C2AF75C7AA75C75543A401A288
:10061D000092AFE59F20E6FBA2AF9200C2AF75C777
:10062D00AA75C75553A5FBA20092AFA2AF9200C207
:10063D00AF75C7AA75C755539FFEA20092AFC2AF43
:10064D0075C7AA75C755539FFD75C7AA75C755437D
:10065D009F80A2AF9200C2AF75C7AA75C755539FB1
:06066D00FEA20092AF2284
:100D070075C7AA75C75543AA07A2AF9200C2AF75A8
:0D0D1700C7AA75C75543AA40A20092AF229B
:03000000020521D5
:1005210075C7AA75C75575FD5A75C7AA75C755759B
:10053100FDA5787FE4F6D8FD9000007FFF7E03E4FF
:0C054100F0A3DFFCDEFA75814C02058897
:10007600EC4D6011E8497017ED33EC3304600DE484
:10008600FCFFFEFD22E933E8330470F80202C612D3
:10009600029158046009E4CC2481500628500902D4
:1000A60002D02840030202CDC0E0EB4A7044B9807A
:1000B60006D0E0FB0202BCEF4E701CBD8008EBFFD1
:1000C600EAFEE9FD80EBE98DF0A4FEE5F002015FB2
:1000D600E9CDF9EAFEEBFFEF89F0A4FCE5F0CE8965
:1000E600F0A42EFFE435F0CD89F0A42DFEE435F022
:1000F6008067EF4E7005BD80D780C3EF8BF0A4AC50
:10010600F0EE8BF0A42CFCE435F0F8EF8AF0A42C8A
:10011600E5F038FCE433CB8DF0A42CFCE5F03BF89D
:10012600EE8AF0A42CFCE5F038F8E433CF89F0A48D
:100136002CFCE5F038CF3400CE89F0A42FFFE5F093
:100146003EFEE433C98DF0A42EFEE5F039CD8AF0EB
:10015600A42FFFE5F03EFEE43DFD33D0E0FB500763
:100166000BBB000F0202D0EC2CFCEF33FFEE33FE8C
:06017600ED33FD0202A8BA
:10017C000202D0EC5D046005E8590470030202C66B
:10018C00120291580460F6EC4860F2EC7004FDFE2B
:10019C00FF22C860DB2481C85009C3986002500656
:1001AC000202CD9850CAF582E9294B4A7005AB8200
:1001BC000202BC75F0007C1A7880C3EF9BEE9AEDBE
:1001CC0099400DC3EF9BFFEE9AFEED99FDE842F0CE
:1001DC00DC23ACF0D0E0FFD0E0FED0E0FDAB822021
:1001EC00E7101BEB60BAEC2CFCEF33FFEE33FEEDAB
:1001FC0033FD0202A8E803F830E705C0F075F00003
:10020C00EF2FFFEE33FEED33FD40B830E7C280AA8E
:10021C0075F020800E75F010800575F0087D007E5D
:10022C00007F003392D530D5031203F8EC33401025
:10023C00EF33FFEE33FEED33FDEC33FCD5F0ED2266
:0E024C00E5F0247EA2D513CC92E7CDCEFF22A2
:10025A00EDD2E7CD33EC3392D524814006E4FFFE9C
:10026A00FDFC22FCE4CFCECDCC24E0501174FF80FB
:10027A00EDC3CC13CCCD13CDCE13CECF13CF047098
:07028A00F030D5DE0203F89D
:10029100E9D2E7C933E833F892D5EDD2E7CD33ECB3
:0702A10033FC5002B2D5222C
:1002A800EC30E7100FBF000C0EBE00080DBD0004B7
:1002B8000BEB6014A2D5EB13FCED92E7FD2274FF63
:1002C800FCFDFEFF22E480F8A2D574FF13FC7D80BC
:0302D800E480EFD0
:10054D0002042AE493A3F8E493A34003F68001F296
:10055D0008DFF48029E493A3F85407240CC8C333AF
:10056D00C4540F4420C8834004F456800146F6DF7E
:10057D00E4800B0102040810204080900C9DE47E65
:10058D00019360BCA3FF543F30E509541FFEE49373
:10059D00A360010ECF54C025E060A840B8E493A33A
:1005AD00FAE493A3F8E493A3C8C582C8CAC583CA65
:1005BD00F0A3C8C582C8CAC583CADFE9DEE780BE1D
:010CC2000031
:1002DB00E88FF0A4CC8BF0A42CFCE98EF0A42CFCC2
:1002EB008AF0EDA42CFCEA8EF0A4CDA8F08BF0A440
:1002FB002DCC3825F0FDE98FF0A42CCD35F0FCEB9F
:10030B008EF0A4FEA9F0EB8FF0A4CFC5F02ECD3963
:0F031B00FEE43CFCEAA42DCE35F0FDE43CFC22D0
:10032A0075F008758200EF2FFFEE33FECD33CDCC8A
:10033A0033CCC58233C5829BED9AEC99E58298400D
:10034A000CF582EE9BFEED9AFDEC99FC0FD5F0D6EA
:10035A00E4CEFBE4CDFAE4CCF9A88222B800C1B914
:10036A000059BA002DEC8BF084CFCECDFCE5F0CB52
:10037A00F97818EF2FFFEE33FEED33FDEC33FCEB8B
:10038A0033FB10D703994004EB99FB0FD8E5E4F946
:10039A00FA227818EF2FFFEE33FEED33FDEC33FC33
:1003AA00C933C910D7059BE99A4007EC9BFCE99A27
:1003BA00F90FD8E0E4C9FAE4CCFB2275F010EF2F6C
:1003CA00FFEE33FEED33FDCC33CCC833C810D7076C
:1003DA009BEC9AE899400AED9BFDEC9AFCE899F8A7
:0E03EA000FD5F0DAE4CDFBE4CCFAE4C8F9223A
:10001E00C2D5E830E70FB2D5E4C39BFBE49AFAE40D
:10002E0099F9E498F8EC30E717B2D51200541203A0
:10003E0066E4C39BFBE49AFAE499F9E498F880032A
:10004E0012036630D50DE4C39FFFE49EFEE49DFDD2
:04005E00E49CFC2200
:0E03F800C3E49FFFE49EFEE49DFDE49CFC2216
:10040600EB9FF5F0EA9E42F0E99D42F0E89C45F04C
:0104160022C3
:10041700E8600FECC313FCED13FDEE13FEEF13FFC3
:03042700D8F122E7
:00000001FF
