:10001E0053B1BF53B2BF53B17F53B27F75985043A4
:10002E008920438780438E1053C4DFAB07AA06A9ED
:10003E0005A8047F407E427D0F7C00120366EF040C
:09004E00F404F58DD28ED2992242
:100720008F488E478D468C4553B1BF53B2BF53B1EE
:100730007F53B27F75985043878053C4F843C420D9
:10074000AB48AA47A946A8457F407E427D0F7C0062
:10075000120366C374FF9FFF74FF9EFEE49DFDE4D9
:100760009CFC78081204178FC6AB48AA47A946A874
:10077000457F407E427D0F7C00120366C374FF9F5D
:09078000FF8FC543C408D2992281
:070003003098FDAF99C2988F
:01000A0022D3
:080C9200C2998F993099FD22EF
:100855008F1F8E1E8D1D8C1C53B1FB53B2FB53B3E2
:10086500BF43B44075F85075C40853C4DFAB1FAA25
:100875001EA91DA81C7F407E427D0F7C00120366C9
:10088500C374FF9FFF74FF9EFEE49DFDE49CFC780E
:10089500081204178FC6AB1FAA1EA91DA81C7F40EE
:1008A5007E427D0F7C00120366C374FF9FFF8FC5D8
:0408B50043C408220E
:070C9A0030F8FDAF9AC2F82B
:010CA1002230
:080CA200C2F98F9A30F9FD221E
:1009FF008F348E338D328C31538EF7438901D28CE5
:100A0F00E4FFFEFDFCAB34AA33A932A831C31204B4
:100A1F00066025758A7E758CFF308DFDC28DE5349D
:100A2F0024FFF534E53334FFF533E53234FFF53287
:0B0A3F00E53134FFF53180C8C28C2285
:100A4A008F488E478D468C45538EF7438901D28C49
:100A5A00E4FFFEFDFCAB48AA47A946A845C3120419
:100A6A00066025758ACA758CFA308DFDC28DE548F7
:100A7A0024FFF548E54734FFF547E54634FFF546D8
:0B0A8A00E54534FFF54580C8C28C2212
:100A95008F388E378D368C35538EEF438910D28E35
:100AA500E4FFFEFDFCAB38AA37A936A835C312040E
:100AB500066025758BEA758DCB308FFDC28FE538C5
:100AC50024FFF538E53734FFF537E53634FFF536DD
:0B0AD500E53534FFF53580C8C28E22E5
:100917008F3C8E3B8D3A8C3953C9BF53C9DF43C9CE
:1009270010D2CAE4FFFEFDFCAB3CAA3BA93AA839AA
:10093700C3120406602575CC3075CDF830CFFDC2E3
:10094700CFE53C24FFF53CE53B34FFF53BE53A3486
:0E095700FFF53AE53934FFF53980C8C2CA22EF
:100965008F408E3F8D3E8C3D75C40743C408E4FF20
:10097500FEFDFCAB40AA3FA93EA83DC3120406609C
:100985002875C52C75C6CFE5C430E4FB53C4EFE527
:100995004024FFF540E53F34FFF53FE53E34FFF5E4
:0D09A5003EE53D34FFF53D80C553C4F7220B
:1009B2008F448E438D428C4175C40743C408E4FFC3
:1009C200FEFDFCAB44AA43A942A841C3120406603F
:1009D2002875C5D875C6FFE5C430E4FB53C4EFE5FE
:1009E2004424FFF544E54334FFF543E54234FFF583
:0D09F20042E54134FFF54180C553C4F722B2
:100C2B0002210000042300000000022D0000022717
:050C3B0000000129008A
:1004D6007F007EC27D017C00120720120B24C2928F
:1004E600C290C281E4F52CD291D280D2837F0A7E5B
:1004F600007D007C00120A4AC291C280C2837F0A34
:100506007E007D007C00120A4A052CE52CC394640B
:1005160040D51206B6120CAA7F207E00120BB4A29A
:10052600AF9200C2AF75C7AA75C75543F901A200BD
:1005360092AFA2AF9200C2AF75C7AA75C75543F96D
:1005460004A20092AFA2AF9200C2AF75C7AA75C748
:100556005543F902A20092AF120C56120C15120B5B
:10056600D7120B90439B08439B20D2AFD2DE7F323B
:090576007E0012000ED2DF80FEAF
:100B240043AC0153ADFE43B34053B4BF43B320536E
:100B3400B4DF53B3FB43B40453B3FD43B40253B320
:100B4400FE43B40153B1FE43B20153B1FD43B202BB
:100B540053B1F743B20843B31053B4EF53B3F7435D
:030B6400B40822B0
:1006B60043DE0143DE0243DE0443DE0843DE10432D
:1006C600DE2043DF2043DF0253DFFA43DF1043DF40
:1006D6004053DF7FA2AF920075C7AA75C7557591C3
:1006E6000153B7F875C7AA75C755E4F591A20092EC
:1006F600AFA2AF920075C7AA75C75575910143B7EA
:100706003075C7AA75C755F591A20092AFD2DCF530
:0A071600D175D96475FBFFF5FC22D4
:0C000E00AD07AC068CD2EDF5DAD2DE2294
:070CAA0043DF0853D7BF220E
:100BB400AD07AF06A2AF9200BF010BC2AF75C7AAC3
:100BC40075C75543F91075C7AA75C7558DFAA200A4
:020BD40092AFDE
:010BD60022FC
:100C5600538EF7438901758AEA758CCBD2A9D2AF38
:030C6600D28C220B
:100C1500538EEF4389105389DF758BCA758DFAD2D0
:060C2500ABD2AFD28E221B
:100BD70053C8FE75C9895393FC43930153F1F043FE
:100BE700F10843921043941043C970439B04D2CA3F
:010BF70022DB
:1007F000A295E433752700F52825E0F528E5273391
:10080000F527A296E4334228E52825E0F528E527D8
:1008100033F527A2B0E4334228E5277037E52814E2
:10082000602014602914602114600B14600F147090
:100830002375FBFC800375FBF375FC202275FBF32D
:10084000800375FBCF75FC022275FBCF800375FB1F
:05085000FC75FC08220C
:10078900A295E433752700F52825E0F528E52733F8
:10079900F527A296E4334228E52825E0F528E52740
:1007A90033F527A2B0E4334228E5277039E5282438
:1007B900FE601C1460121460221460241460152455
:1007C90005702375FBFC800375FBF375FC2022750E
:1007D900FBF3800375FBCF75FC022275FBCF800309
:0707E90075FBFC75FC082202
:03000B00020C776D
:090C7700758AEA758CCBC28D323E
:03001B00020C8054
:090C8000758BCA758DFAC28F3222
:030063000206256D
:10062500C0E0C0F0C083C082C0D075D000C000C09B
:1006350001C002C003C004C005C006C0075392FE36
:10064500AFE5EFFEADE47C00E42DFDEC3EFC1202CF
:10065500217BBD7A37790678381200768F268E256C
:100665008D248C23E4FFFEFD7C40AB26AA25A9241E
:10067500A823120076A804A905AA06AB07E4FFFE85
:100685007D707C4212017F12025A8E218F2275E401
:100695000075E500C2CFD007D006D005D004D00341
:1006A500D002D001D000D0D0D082D083D0F0D0E01D
:0106B5003212
:0300730002005731
:0400570053D77F32CA
:03006B00020C691B
:0E0C6900C0E0C0D0C2DD1207F0D0D0D0E03223
:1008B9008F0B8E0A8D098C08C3E51B9517FBE51A6A
:1008C9009516FAE5199515F9E5189514F8C3E50B88
:1008D900950FFFE50A950EFEE509950DFDE50895CD
:1008E9000CFC1202DBC3E513950FFBE512950EFA1A
:1008F900E511950DF9E510950CF8120AE0EF2517A9
:0E090900FFEE3516FEED3515FDEC3514FC2223
:10057F00A2AF9200C2AF75C7AA75C755439F01A21C
:10058F000092AF75A604E4F5A775AEFF75AFC0A2D4
:10059F00AF9200C2AF75C7AA75C75543A401A20099
:1005AF0092AFE5AE54F064F0705875AE0F75AFE1D1
:1005BF00A2AF9200C2AF75C7AA75C75543A401A2D7
:1005CF000092AFE59F20E6FBA2AF9200C2AF75C7C6
:1005DF00AA75C75553A5FBA20092AFA2AF9200C256
:1005EF00AF75C7AA75C755539FFEA20092AFC2AF92
:1005FF0075C7AA75C755539FFD75C7AA75C75543CC
:10060F009F80A2AF9200C2AF75C7AA75C755539FFF
:06061F00FEA20092AF22D2
:100BF80075C7AA75C75543AA07A2AF9200C2AF75B9
:0D0C0800C7AA75C75543AA40A20092AF22AB
:100B900043E10153E1CF43B38053B47F43F60143B4
:100BA000B12053B2DF43F61043B11053B2EF43F616
:040BB00020D2AE227F
:090C890053E8F0EF540742E822A1
:03006E00D2EE22AD
:060CB100A2EEE433FF2275
:100C4100AFC3EF75F010A4FFE5C2540F7C002FFF76
:050C5100EC35F0FE226D
:030CC300C2EF225B
:04005E0043E1012257
:0400660053E1FE2242
:03005B00020B672E
:100B6700C0E0C0F0C0D075D000C004C006C00712F6
:100B77000C418E2A8F2B120CC312006ED007D006A1
:090B8700D004D0D0D0F0D0E0324F
:050CB700E5E8540FFF09
:010CBC002215
:060CBD00E4F5C3F5C222BC
:0300000002042ACD
:10042A0075C7AA75C75575FD5A75C7AA75C7557593
:10043A00FDA5787FE4F6D8FD9000007FFF7E03E4F7
:0C044A00F0A3DFFCDEFA7581480204918B
:10007600EC4D6011E8497017ED33EC3304600DE484
:10008600FCFFFEFD22E933E8330470F80202C612D3
:10009600029158046009E4CC2481500628500902D4
:1000A60002D02840030202CDC0E0EB4A7044B9807A
:1000B60006D0E0FB0202BCEF4E701CBD8008EBFFD1
:1000C600EAFEE9FD80EBE98DF0A4FEE5F002015FB2
:1000D600E9CDF9EAFEEBFFEF89F0A4FCE5F0CE8965
:1000E600F0A42EFFE435F0CD89F0A42DFEE435F022
:1000F6008067EF4E7005BD80D780C3EF8BF0A4AC50
:10010600F0EE8BF0A42CFCE435F0F8EF8AF0A42C8A
:10011600E5F038FCE433CB8DF0A42CFCE5F03BF89D
:10012600EE8AF0A42CFCE5F038F8E433CF89F0A48D
:100136002CFCE5F038CF3400CE89F0A42FFFE5F093
:100146003EFEE433C98DF0A42EFEE5F039CD8AF0EB
:10015600A42FFFE5F03EFEE43DFD33D0E0FB500763
:100166000BBB000F0202D0EC2CFCEF33FFEE33FE8C
:06017600ED33FD0202A8BA
:10017C000202D0EC5D046005E8590470030202C66B
:10018C00120291580460F6EC4860F2EC7004FDFE2B
:10019C00FF22C860DB2481C85009C3986002500656
:1001AC000202CD9850CAF582E9294B4A7005AB8200
:1001BC000202BC75F0007C1A7880C3EF9BEE9AEDBE
:1001CC0099400DC3EF9BFFEE9AFEED99FDE842F0CE
:1001DC00DC23ACF0D0E0FFD0E0FED0E0FDAB822021
:1001EC00E7101BEB60BAEC2CFCEF33FFEE33FEEDAB
:1001FC0033FD0202A8E803F830E705C0F075F00003
:10020C00EF2FFFEE33FEED33FD40B830E7C280AA8E
:10021C0075F020800E75F010800575F0087D007E5D
:10022C00007F003392D530D5031203F8EC33401025
:10023C00EF33FFEE33FEED33FDEC33FCD5F0ED2266
:0E024C00E5F0247EA2D513CC92E7CDCEFF22A2
:10025A00EDD2E7CD33EC3392D524814006E4FFFE9C
:10026A00FDFC22FCE4CFCECDCC24E0501174FF80FB
:10027A00EDC3CC13CCCD13CDCE13CECF13CF047098
:07028A00F030D5DE0203F89D
:10029100E9D2E7C933E833F892D5EDD2E7CD33ECB3
:0702A10033FC5002B2D5222C
:1002A800EC30E7100FBF000C0EBE00080DBD0004B7
:1002B8000BEB6014A2D5EB13FCED92E7FD2274FF63
:1002C800FCFDFEFF22E480F8A2D574FF13FC7D80BC
:0302D800E480EFD0
:100456000204D6E493A3F8E493A34003F68001F2E2
:1004660008DFF48029E493A3F85407240CC8C333A7
:10047600C4540F4420C8834004F456800146F6DF76
:10048600E4800B0102040810204080900C2BE47ECF
:10049600019360BCA3FF543F30E509541FFEE4936B
:1004A600A360010ECF54C025E060A840B8E493A332
:1004B600FAE493A3F8E493A3C8C582C8CAC583CA5D
:1004C600F0A3C8C582C8CAC583CADFE9DEE780BE15
:010C400000B3
:1002DB00E88FF0A4CC8BF0A42CFCE98EF0A42CFCC2
:1002EB008AF0EDA42CFCEA8EF0A4CDA8F08BF0A440
:1002FB002DCC3825F0FDE98FF0A42CCD35F0FCEB9F
:10030B008EF0A4FEA9F0EB8FF0A4CFC5F02ECD3963
:0F031B00FEE43CFCEAA42DCE35F0FDE43CFC22D0
:10032A0075F008758200EF2FFFEE33FECD33CDCC8A
:10033A0033CCC58233C5829BED9AEC99E58298400D
:10034A000CF582EE9BFEED9AFDEC99FC0FD5F0D6EA
:10035A00E4CEFBE4CDFAE4CCF9A88222B800C1B914
:10036A000059BA002DEC8BF084CFCECDFCE5F0CB52
:10037A00F97818EF2FFFEE33FEED33FDEC33FCEB8B
:10038A0033FB10D703994004EB99FB0FD8E5E4F946
:10039A00FA227818EF2FFFEE33FEED33FDEC33FC33
:1003AA00C933C910D7059BE99A4007EC9BFCE99A27
:1003BA00F90FD8E0E4C9FAE4CCFB2275F010EF2F6C
:1003CA00FFEE33FEED33FDCC33CCC833C810D7076C
:1003DA009BEC9AE899400AED9BFDEC9AFCE899F8A7
:0E03EA000FD5F0DAE4CDFBE4CCFAE4C8F9223A
:100AE000C2D5E830E70FB2D5E4C39BFBE49AFAE441
:100AF00099F9E498F8EC30E717B2D5120B16120307
:100B000066E4C39BFBE49AFAE499F9E498F880035D
:100B100012036630D50DE4C39FFFE49EFEE49DFD05
:040B2000E49CFC2233
:0E03F800C3E49FFFE49EFEE49DFDE49CFC2216
:10040600EB9FF5F0EA9E42F0E99D42F0E89C45F04C
:0104160022C3
:10041700E8600FECC313FCED13FDEE13FEEF13FFC3
:03042700D8F122E7
:00000001FF
