:1008810053B1BF53B2BF53B17F53B27F7598504339
:100891008920438780438E1053C4DFAB07AA06A982
:1008A10005A8047F407E427D0F7C001203C1EF0446
:0908B100F404F58DD28ED29922D7
:100597008F318E308D2F8C2E53B1BF53B2BF53B1D5
:1005A7007F53B27F75985043878053C4F843C42064
:1005B700AB31AA30A92FA82E7F407E427D0F7C0049
:1005C7001203C1C374FF9FFF74FF9EFEE49DFDE409
:1005D7009CFC78081204648FC6AB31AA30A92FA8F7
:1005E7002E7F407E427D0F7C001203C1C374FF9FA4
:0905F700FF8FC543C408D299220C
:070916003098FDAF99C29873
:01091D0022B7
:08091E00C2998F993099FD2266
:100600008F358E348D338C3253B1FB53B2FB53B3E1
:10061000BF43B44075F85075C40853C4DFAB35AA66
:1006200034A933A8327F407E427D0F7C001203C183
:10063000C374FF9FFF74FF9EFEE49DFDE49CFC7865
:10064000081204648FC6AB35AA34A933A8327F40A0
:100650007E427D0F7C001203C1C374FF9FFF8FC5D4
:0406600043C4082265
:0709260030F8FDAF9AC2F8A2
:01092D0022A7
:08092E00C2F98F9A30F9FD2295
:10075C008F398E388D378C36538EF7438901D28C76
:10076C00E4FFFEFDFCAB39AA38A937A836C3120446
:10077C00536025758A7E758CFF308DFDC28DE539F1
:10078C0024FFF539E53834FFF538E53734FFF53714
:0B079C00E53634FFF53680C8C28C2221
:1007A7008F1F8E1E8D1D8C1C538EF7438901D28C93
:1007B700E4FFFEFDFCAB1FAA1EA91DA81CC3120463
:1007C700536025758ACA758CFA308DFDC28DE51F79
:1007D70024FFF51FE51E34FFF51EE51D34FFF51D4B
:0B07E700E51C34FFF51C80C8C28C220A
:1007F2008F3D8E3C8D3B8C3A538EEF438910D28EC7
:10080200E4FFFEFDFCAB3DAA3CA93BA83AC312049F
:10081200536025758BEA758DCB308FFDC28FE53D18
:1008220024FFF53DE53C34FFF53CE53B34FFF53B69
:0B083200E53A34FFF53A80C8C28E2280
:100003008F418E408D3F8C3E53C9BF53C9DF43C9D7
:1000130010D2CAE4FFFEFDFCAB41AA40A93FA83EB3
:10002300C3120453602575CC3075CDF830CFFDC2B3
:10003300CFE54124FFF541E54034FFF540E53F348A
:0E004300FFF53FE53E34FFF53E80C8C2CA22FD
:1006C2008F458E448D438C4275C40743C408E4FFB2
:1006D200FEFDFCAB45AA44A943A842C312045360E1
:1006E2002875C52C75C6CFE5C430E4FB53C4EFE5CD
:1006F2004524FFF545E54434FFF544E54334FFF571
:0D07020043E54234FFF54280C553C4F722A1
:10070F008F498E488D478C4675C40743C408E4FF54
:10071F00FEFDFCAB49AA48A947A846C31204536083
:10072F002875C5D875C6FFE5C430E4FB53C4EFE5A3
:10073F004924FFF549E54834FFF548E54734FFF50F
:0D074F0047E54634FFF54680C553C4F72248
:0C090900012200012801012901012A003F
:10005E001208BAC2831208E87F0412005112094432
:10006E00D2AFA290E433F523A291E433F52BA28014
:10007E00E433F521E523B40111E52B700DE5217074
:10008E0009E52270057522018039E523702AE52BDA
:10009E00B4010FE521700BE528B40106E4F52875CF
:1000AE002202E52B701DE521B40118E529B40113D8
:1000BE00E4F529752203800BE4F5227528017529D4
:1000CE0001C283E523700CE52B7008E5217004C294
:1000DE0083F522E52224FE70030201DB1470030275
:1000EE00028424026003020330A290E433F523A2BB
:1000FE0091E433F52BA280E433F5212090147FFA9E
:10010E007E007D007C001207A7209006A290E433AB
:10011E00F523E523B4010E1208FA7FE87E037D0075
:10012E007C001207A70201CBE523640160030201E4
:10013E00D3E52B60030201D3E52160030201D3A2B4
:10014E009033F523A291E433F52BA280E433F5210D
:10015E000525E525700205242090147FFA7E007D8A
:10016E00007C001207A7209006A290E433F523E549
:10017E00237004C283804ED3E5259400E524648069
:10018E009480400EE52594F4E52464809481500219
:10019E00D283D3E52594F4E52464809481400EE562
:1001AE002594D0E524648094875002C283D3E5253C
:1001BE0094D0E524648094875003020136E4F5243C
:1001CE00F525020136C283E4F522020070A290E406
:1001DE0033F523A291E433F52BA280E433F521E528
:1001EE0023700E1208FA7FE87E037D007C00120752
:1001FE00A78076E5237079E52B64017073E5217095
:10020E006FA29033F523A291E433F52BA280E43351
:10021E00F5210525E52570020524E523B40107C265
:10022E0083E4F522804AD3E5259400E52464809486
:10023E0080400EE52594F4E524648094815002D22A
:10024E0083D3E52594F4E52464809481400EE5255E
:10025E0094D0E524648094875002C283D3E525941C
:10026E00D0E52464809487408AE4F524F5258083C4
:10027E00752801020070A290E433F523A291E433B5
:10028E00F52BA280E433F521E5236003020323124C
:10029E0008FA7FE87E037D007C001207A78076E5D2
:1002AE00237079E52B7075E5216401706FA2903390
:1002BE00F523A280E433F521A291E433F52B052535
:1002CE00E52570020524E523B40107C283E4F52277
:1002DE00804AD3E5259400E52464809480400EE5A1
:1002EE002594F4E524648094815002D283D3E525CD
:1002FE0094F4E52464809481400EE52594D0E524A1
:10030E00648094875002C283D3E52594D0E524649B
:10031E00809487408AE4F524F525808375290102AF
:08032E000070E4F522020070EA
:1008BA0043B30253B4FD43B10153B2FE43B10153F2
:0908CA00B2FE53B1F743B208225B
:0408FA00AF27AE2650
:0B08FE00D283E4FCFD1207A7C2832296
:03005B0002052378
:10052300C0E0C0F0C083C082C0D075D000C000C09E
:1005330001C002C003C004C005C006C0071208D32F
:100543008E2C8F2DE4FCFDF50FF50EF50DF50C75D6
:1005530013E0751204F511F510751764F516F5150A
:10056300F514751B88751A13F519F5181206648EA0
:10057300268F27120947120944D007D006D005D089
:1005830004D003D002D001D000D0D0D082D083D009
:04059300F0D0E03292
:100664008F0B8E0A8D098C08C3E51B9517FBE51AC1
:100674009516FAE5199515F9E5189514F8C3E50BDF
:10068400950FFFE50A950EFEE509950DFDE5089524
:100694000CFC120336C3E513950FFBE512950EFA15
:1006A400E511950DF9E510950CF812083DEF2517A5
:0E06B400FFEE3516FEED3515FDEC3514FC227B
:1008E80043E10153E1CF43B12053B2DF43F610D2C5
:0208F800AE222E
:0900510053E8F0EF540742E822E5
:03094400D2EE22CE
:06093600A2EEE433FF22F3
:1008D300AFC3EF75F010A4FFE5C2540F7C002FFFE8
:0508E300EC35F0FE22DF
:03094700C2EF22DA
:04093C0043E1012270
:0409400053E1FE225F
:0300000002047780
:1004770075C7AA75C75575FD5A75C7AA75C7557546
:10048700FDA5787FE4F6D8FD9000007FFF7E03E4AA
:0C049700F0A3DFFCDEFA7581490204DEF0
:1004A30002005EE493A3F8E493A34003F68001F211
:1004B30008DFF48029E493A3F85407240CC8C3335A
:1004C300C4540F4420C8834004F456800146F6DF29
:1004D300E4800B0102040810204080900909E47EA7
:1004E300019360BCA3FF543F30E509541FFEE4931E
:1004F300A360010ECF54C025E060A840B8E493A3E5
:10050300FAE493A3F8E493A3C8C582C8CAC583CA0F
:10051300F0A3C8C582C8CAC583CADFE9DEE780BEC7
:0109150000E1
:10033600E88FF0A4CC8BF0A42CFCE98EF0A42CFC66
:100346008AF0EDA42CFCEA8EF0A4CDA8F08BF0A4E4
:100356002DCC3825F0FDE98FF0A42CCD35F0FCEB43
:100366008EF0A4FEA9F0EB8FF0A4CFC5F02ECD3908
:0F037600FEE43CFCEAA42DCE35F0FDE43CFC2275
:1003850075F008758200EF2FFFEE33FECD33CDCC2F
:1003950033CCC58233C5829BED9AEC99E5829840B2
:1003A5000CF582EE9BFEED9AFDEC99FC0FD5F0D68F
:1003B500E4CEFBE4CDFAE4CCF9A88222B800C1B9B9
:1003C5000059BA002DEC8BF084CFCECDFCE5F0CBF7
:1003D500F97818EF2FFFEE33FEED33FDEC33FCEB30
:1003E50033FB10D703994004EB99FB0FD8E5E4F9EB
:1003F500FA227818EF2FFFEE33FEED33FDEC33FCD8
:10040500C933C910D7059BE99A4007EC9BFCE99ACB
:10041500F90FD8E0E4C9FAE4CCFB2275F010EF2F10
:10042500FFEE33FEED33FDCC33CCC833C810D70710
:100435009BEC9AE899400AED9BFDEC9AFCE899F84B
:0E0445000FD5F0DAE4CDFBE4CCFAE4C8F922DE
:10083D00C2D5E830E70FB2D5E4C39BFBE49AFAE4E6
:10084D0099F9E498F8EC30E717B2D5120873120352
:10085D00C1E4C39BFBE49AFAE499F9E498F88003A8
:10086D001203C130D50DE4C39FFFE49EFEE49DFD50
:04087D00E49CFC22D9
:10045300EB9FF5F0EA9E42F0E99D42F0E89C45F0FF
:010463002276
:10046400E8600FECC313FCED13FDEE13FEEF13FF76
:03047400D8F1229A
:00000001FF
