:1006250053B1BF53B2BF53B17F53B27F7598504397
:100635008920438780438E1053C4DFAB07AA06A9E0
:1006450005A8047F407E427D0F7C001200E9EF047F
:09065500F404F58DD28ED2992235
:10033B008F318E308D2F8C2E53B1BF53B2BF53B133
:10034B007F53B27F75985043878053C4F843C420C2
:10035B00AB31AA30A92FA82E7F407E427D0F7C00A7
:10036B001200E9C374FF9FFF74FF9EFEE49DFDE442
:10037B009CFC780812018C8FC6AB31AA30A92FA830
:10038B002E7F407E427D0F7C001200E9C374FF9FDD
:09039B00FF8FC543C408D299226A
:0706FB003098FDAF99C29891
:0107020022D4
:08070300C2998F993099FD2283
:1003A4008F358E348D338C3253B1FB53B2FB53B340
:1003B400BF43B44075F85075C40853C4DFAB35AAC5
:1003C40034A933A8327F407E427D0F7C001200E9BD
:1003D400C374FF9FFF74FF9EFEE49DFDE49CFC78C4
:1003E4000812018C8FC6AB35AA34A933A8327F40DA
:1003F4007E427D0F7C001200E9C374FF9FFF8FC50E
:0404040043C40822C3
:07070B0030F8FDAF9AC2F8BF
:0107120022C4
:08071300C2F98F9A30F9FD22B2
:100500008F398E388D378C36538EF7438901D28CD4
:10051000E4FFFEFDFCAB39AA38A937A836C31201A7
:100520007B6025758A7E758CFF308DFDC28DE53927
:1005300024FFF539E53834FFF538E53734FFF53772
:0B054000E53634FFF53680C8C28C227F
:10054B008F1F8E1E8D1D8C1C538EF7438901D28CF1
:10055B00E4FFFEFDFCAB1FAA1EA91DA81CC31201C4
:10056B007B6025758ACA758CFA308DFDC28DE51FAF
:10057B0024FFF51FE51E34FFF51EE51D34FFF51DA9
:0B058B00E51C34FFF51C80C8C28C2268
:100596008F3D8E3C8D3B8C3A538EEF438910D28E25
:1005A600E4FFFEFDFCAB3DAA3CA93BA83AC3120101
:1005B6007B6025758BEA758DCB308FFDC28FE53D4F
:1005C60024FFF53DE53C34FFF53CE53B34FFF53BC8
:0B05D600E53A34FFF53A80C8C28E22DF
:100003008F418E408D3F8C3E53C9BF53C9DF43C9D7
:1000130010D2CAE4FFFEFDFCAB41AA40A93FA83EB3
:10002300C312017B602575CC3075CDF830CFFDC28E
:10003300CFE54124FFF541E54034FFF540E53F348A
:0E004300FFF53FE53E34FFF53E80C8C2CA22FD
:100466008F458E448D438C4275C40743C408E4FF10
:10047600FEFDFCAB45AA44A943A842C312017B601A
:100486002875C52C75C6CFE5C430E4FB53C4EFE52B
:100496004524FFF545E54434FFF544E54334FFF5CF
:0D04A60043E54234FFF54280C553C4F72200
:1004B3008F498E488D478C4675C40743C408E4FFB3
:1004C300FEFDFCAB49AA48A947A846C312017B60BD
:1004D3002875C5D875C6FFE5C430E4FB53C4EFE502
:1004E3004924FFF549E54834FFF548E54734FFF56E
:0D04F30047E54634FFF54680C553C4F722A7
:10019F0012068AC283E4F522752601752701752898
:1001AF00011206CB7F04120051120729D2AF12069B
:1001BF00B8E523B4010CE529B40107E5217003125A
:1001CF0006ECE523700BE5297007E5217003120695
:1001DF00ECE523B4010CE529B40107E52170031206
:1001EF0006ECE523B4010CE5297008E521B4010301
:1001FF001206ECE523700DE529B40108E521B401E1
:10020F00031206ECE523B40115E5297011E5217001
:10021F000DE526B40108E4F5267522018031E523AA
:10022F00702AE529B4010FE521700BE527B401060B
:10023F00E4F527752202E5297015E521B40110E5D3
:10024F0028B4010BE4F52875220380031206ECE5B0
:10025F002224FE604114604A240270561206B82010
:10026F0090147FFA7E007D007C0012054B209006D3
:10027F00A290E433F523E523B401031206DDE4F580
:10028F002CF52DE529700BE52170071206B8C283F6
:10029F0080F1C28380161206B8E52370031206DDC3
:1002AF00800A1206B8E52370031206DDE4F5220278
:0802BF0001BDE4F5220201BDBE
:10068A0043B30253B4FD43B10153B2FE43B1015324
:09069A00B2FE53B1F743B208228D
:0406DD00AF25AE2473
:0B06E100D283E4FCFD12054BC2832213
:0F06EC00E4F522752601752701752801C28322C6
:1006B800A290E433F523A291E433F529A280E43330
:0306C800F52122F7
:03005B000202C7D7
:1002C700C0E0C0F0C083C082C0D075D000C000C0FD
:1002D70001C002C003C004C005C006C0071206A3C0
:1002E7008E2A8F2BE4FCFDF50FF50EF50DF50C7539
:1002F70013E0751204F511F510751764F516F51569
:10030700F514751B88751A13F519F5181204088E5C
:10031700248F2512072C120729D007D006D005D025
:1003270004D003D002D001D000D0D0D082D083D067
:04033700F0D0E032F0
:100408008F0B8E0A8D098C08C3E51B9517FBE51A1F
:100418009516FAE5199515F9E5189514F8C3E50B3D
:10042800950FFFE50A950EFEE509950DFDE5089582
:100438000CFC12005EC3E513950FFBE512950EFA4E
:10044800E511950DF9E510950CF81205E1EF251762
:0E045800FFEE3516FEED3515FDEC3514FC22D9
:1006CB0043E10153E1CF43B12053B2DF43F610D2E4
:0206DB00AE224D
:0900510053E8F0EF540742E822E5
:03072900D2EE22EB
:06071B00A2EEE433FF2210
:1006A300AFC3EF75F010A4FFE5C2540F7C002FFF1A
:0506B300EC35F0FE2211
:03072C00C2EF22F7
:0407210043E101228D
:0407250053E1FE227C
:0300000002065E97
:10065E0075C7AA75C75575FD5A75C7AA75C755755D
:10066E00FDA5787FE4F6D8FD9000007FFF7E03E4C1
:0C067E00F0A3DFFCDEFA75814902019F49
:10005E00E88FF0A4CC8BF0A42CFCE98EF0A42CFC41
:10006E008AF0EDA42CFCEA8EF0A4CDA8F08BF0A4BF
:10007E002DCC3825F0FDE98FF0A42CCD35F0FCEB1E
:10008E008EF0A4FEA9F0EB8FF0A4CFC5F02ECD39E3
:0F009E00FEE43CFCEAA42DCE35F0FDE43CFC2250
:1000AD0075F008758200EF2FFFEE33FECD33CDCC0A
:1000BD0033CCC58233C5829BED9AEC99E58298408D
:1000CD000CF582EE9BFEED9AFDEC99FC0FD5F0D66A
:1000DD00E4CEFBE4CDFAE4CCF9A88222B800C1B994
:1000ED000059BA002DEC8BF084CFCECDFCE5F0CBD2
:1000FD00F97818EF2FFFEE33FEED33FDEC33FCEB0B
:10010D0033FB10D703994004EB99FB0FD8E5E4F9C5
:10011D00FA227818EF2FFFEE33FEED33FDEC33FCB2
:10012D00C933C910D7059BE99A4007EC9BFCE99AA6
:10013D00F90FD8E0E4C9FAE4CCFB2275F010EF2FEB
:10014D00FFEE33FEED33FDCC33CCC833C810D707EB
:10015D009BEC9AE899400AED9BFDEC9AFCE899F826
:0E016D000FD5F0DAE4CDFBE4CCFAE4C8F922B9
:1005E100C2D5E830E70FB2D5E4C39BFBE49AFAE445
:1005F10099F9E498F8EC30E717B2D5120617120012
:10060100E9E4C39BFBE49AFAE499F9E498F88003DE
:100611001200E930D50DE4C39FFFE49EFEE49DFD89
:04062100E49CFC2237
:10017B00EB9FF5F0EA9E42F0E99D42F0E89C45F0DA
:01018B002251
:10018C00E8600FECC313FCED13FDEE13FEEF13FF51
:03019C00D8F12275
:00000001FF
